:020000040800F2
:1000000090E801209D010008D1190008511800084E
:10001000CD1900083D030008B11C000800000000D5
:10002000000000000000000000000000DD1A0008D1
:100030004103000800000000011A0008111B00081D
:10004000B7010008B7010008B7010008B7010008B0
:10005000B7010008B7010008B7010008B7010008A0
:10006000B7010008B7010008B7010008B701000890
:10007000B7010008B7010008B7010008B701000880
:10008000B7010008B7010008B7010008B701000870
:10009000B7010008B7010008B7010008B701000860
:1000A000B7010008B7010008B7010008B701000850
:1000B000B7010008B7010008B7010008B701000840
:1000C000B7010008B7010008B7010008B701000830
:1000D000B7010008B7010008B7010008B701000820
:1000E000B7010008B7010008B7010008B701000810
:1000F000B7010008B7010008B7010008B701000800
:10010000B7010008B7010008B7010008B7010008EF
:10011000B7010008B7010008B7010008B7010008DF
:10012000B7010008B7010008B7010008B7010008CF
:10013000B7010008BD030008B7010008B7010008B7
:10014000B7010008B7010008B7010008B7010008AF
:10015000B7010008B7010008B7010008B70100089F
:10016000B7010008B7010008B7010008B70100088F
:10017000B7010008B7010008B7010008000000003F
:10018000B7010008B7010008DFF80CD000F0C4F890
:1001900000480047ED58000890E8012006488047D5
:1001A00006480047FEE7FEE7FEE7FEE7FEE7FEE75C
:1001B000FEE7FEE7FEE7FEE7C11B00088901000835
:1001C0002DE9F05F0546002092469B46884606468C
:1001D000814640241BE0284641464746224600F01F
:1001E0008AF853465A46C01A914110D31146184610
:1001F000224600F071F82D1A67EB01084F4622469F
:100200000120002100F068F817EB00094E41201E84
:10021000A4F10104DFDC484631462A464346BDE8E6
:10022000F09F00000649074A0868504343F239022C
:10023000104408604008704701490860704700009A
:1002400000C001206D4EC64110B5431A934209D239
:100250008318881803E010F8011D03F8011D521ED1
:10026000F9D210BD40EA01039B0703D009E008C999
:10027000121F08C0042AFAD203E011F8013B00F86B
:10028000013B521EF9D210BDD2B201E000F8012BA1
:10029000491EFBD270470022F6E710B513460A4606
:1002A00004461946FFF7F0FF204610BD30B504465E
:1002B0000020034600E05B1C934203D2E05CCD5C6F
:1002C000401BF8D030BD034611F8012B00F8012B7C
:1002D000002AF9D118467047202A04DB203A00FA98
:1002E00002F1002070479140C2F1200320FA03F38D
:1002F000194390407047202A04DB203A21FA02F08B
:100300000021704721FA02F3D040C2F1200291404F
:100310000843194670470000064C074D06E0E068A8
:1003200040F0010394E8070098471034AC42F6D33C
:10033000FFF72EFF58C1000888C10008FEE7000043
:1003400070470000006841F21801425842F0020272
:1003500042507047006841F21801425842F400527E
:100360004250704781B04CF20800C2F201000068B0
:1003700044F6D351C1F26201A0FB0101480A00908A
:1003800000BF0098411E00280091F9D101B07047CC
:10039000B0B582B0044600200190206841F21805F3
:1003A000415941F48011415140590190FFF7DAFF62
:1003B00001982168485102B0B0BD000010B54CF260
:1003C0008014C2F20104A06A03F0F0FB002818BFF9
:1003D00005F054FA206841F214014FF48032425083
:1003E0004022425010BD0000818848F24002C4F211
:1003F00002021160006850607047000070B500296B
:1004000004461EBF4FF400604FF48041C4E902105F
:100410002068D4E902ECE369026848F20F11CFF6D4
:10042000207111404FF40072002B08BF4FF4C062DE
:1004300042EA0E02114341EA0C0101600568012005
:1004400000F006F920684021056041604568012000
:1004500000F0FEF820684FF6417245600025856087
:10046000C56081691140803181618669012000F099
:10047000EFF820688661C561C569012000F0E8F8E1
:10048000206841F21801C561425843F62373CFF644
:10049000DE031A4042F0087242F00402425045580E
:1004A000012000F0D5F8206800F580518D6142F2FE
:1004B00080014FF48055C0F2C121415146590120BD
:1004C00000F0C6F8A16920680129465107D100F55E
:1004D0008050C16941F4803141F04001C1616069DF
:1004E000FFF782FF70BD000010B582B00446002007
:1004F00001902068016841F00401016000680190EA
:10050000FFF730FF01982168086002B010BD0000BD
:1005100010B582B00446002001902068016841F0C7
:100520000801016000680190FFF71CFF0198216835
:10053000086002B010BD000072B600BFFEE7000008
:10054000B0B5B3F5804F034616D153F822C0002052
:10055000CCF6F0700CEA000E91E83100D1F818C02A
:1005600040EA0E0040EA0410C96840EA052040EA6B
:100570000C0040EA014101E06FF07041002043F8B7
:100580002210B0BD2DE9F04F83B00B68024650F841
:10059000230001F1240B20F0010042F82300D1E9EF
:1005A0000230D1E900CE01908869D1E9049A029025
:1005B000C86BD1E9077600909BE83008D1F830800D
:1005C00052F82C008021CFF6F07108404EEA03016A
:1005D000082B08BF41F04001019B194341EA090182
:1005E00041EA0A01394331432143294341EA0B01DE
:1005F000029B41EA08011943009B19430143002073
:1006000042F82C1003B0BDE8F08F0000F0B500EB0D
:1006100082025068D1E902E400F0404CD1E9003098
:10062000D1E9045643EA0C03002743EA0010CFF651
:10063000F07740EA0E20896907EB055540EA04404F
:100640002843FE36084340EA066100205160F0BDB1
:10065000B0B5044600F01EFD05464CF23800C2F26B
:1006600001000078611C18BF044400BF00F012FDB7
:10067000401BA042FAD3B0BD2DE9F04390F845707D
:100680004FF0020C012F33D04FF0010E80F845E0FF
:1006900080F844C081620BB3D0F818C05C1E01F131
:1006A000200500264FF0004844F2F459BCF1010F38
:1006B00045F8208C45F81C9C45F8182C08BF45F8D7
:1006C0001C9CA6420F4606F1010638BF2F4645F88E
:1006D000147C2035B34202F2F452E7D1026841F2B1
:1006E0000C034FF0000CD15080F844E080F845C076
:1006F0006046BDE8F08300002DE9F04190F84570B8
:100700004FF0020C012F36D04FF0010E80F845E07B
:1007100080F844C0C16223B3D0F81CC05C1E01F154
:10072000200500264FF480180DE000BFA6420F46BA
:1007300006F1010638BF2F4645F8147C2035B34238
:1007400002F2F4520DD0BCF1000F45F8208C45F8B0
:10075000182CEBD155F8207C47F4400745F8207C55
:10076000E4E7026841F210034FF0000CD15080F82A
:1007700044E080F845C06046BDE8F08190F845103F
:1007800001294FF0020133D04FF0010C80F845C031
:1007900080F84410836A196800290AD41968C905C9
:1007A00009D41968890517D4816B0131816301214E
:1007B00017E0012117E0816B4A1C0029826308BF02
:1007C000036343631968026BC1F30D4192680439F6
:1007D000C0E90F12002104E000220121C0E90C321F
:1007E0008163DA688262002280F844C080F8452084
:1007F00008467047F0B583B004460020002C0290F4
:100800003FD094F8440028B9002084F845002046E1
:1008100000F01AF90020019043F64400C4F20200EF
:1008200001684FF4805641F480410160006800F493
:1008300080400190019843F60400C4F20100016871
:1008400021F4000101602168226A03681A430260F2
:10085000885940F00100885100F01CFC054600BF9B
:1008600020688159C9070ED000F014FC401BB0F578
:10087000FA7FF5D90325002084F8445084F8450018
:100880004CE001254AE0006920F01C0500F03EFD27
:100890004DF20031CFF6CE614EF2BF120144C0F2EC
:1008A000E402914202D845F0080527E04FF24011DA
:1008B000CFF6E95147F63F020144C0F27D12914262
:1008C00002D845F00C0519E047F60011CFF66C414F
:1008D00045F600220144C0F2622291420ED341F655
:1008E0000071CFF60A2108444FF27F01C0F2FA21CD
:1008F00088428CBF45F0100545F0040520680021B2
:10090000056120464FF4004200F054FA48B12046F9
:1009100001210125FFF772FD84F84450284603B0F9
:10092000F0BD40F6FF70FFF793FE606818B300F06B
:10093000B1FB054602AE41F2893700BF20460121D6
:10094000324600F05BF900F0A5FB401BB84225D20F
:100950009DF808004007F1D5204600214FF4805251
:1009600000F028FA98B3204601210125FFF746FD43
:1009700084F84450D2E7D4E90201400840EAD100AB
:1009800082B22046002100F015FA98B120460121DC
:100990000125FFF733FD84F84450BFE720460121CD
:1009A0000125FFF72BFD002084F8445084F8450012
:1009B0000325B3E740F6FF70FFF74AFE204600210B
:1009C0000025FFF71BFD012084F84400A6E700F096
:1009D00061FB054602AE41F2893700BF2046012186
:1009E000324600F00BF900F055FB401BB84211D223
:1009F0009DF808008006F1D502AA20461F2100F0CC
:100A0000FDF898B1204601210125FFF7F7FC84F895
:100A1000445083E7204601210125FFF7EFFC002029
:100A200084F8445084F84500032577E702984FF492
:100A3000006101EAC0114007E16054BF4FF48040FB
:100A40000020A060BAE7000070B586B0002043F631
:100A500030010190C4F202010A68002542F001024F
:100A60000A600A68C4F2020502F001020192019ACA
:100A700001900A6801AC42F001020A600A6802268D
:100A800002F001020192019A01900A6842F001020B
:100A90000A600A6802F001020192019A01900A6854
:100AA00042F004020A600A6802F004020192019A0C
:100AB00001900A6842F004020A600A6802F0040227
:100AC0000192019A01900A6842F004020A600A68E1
:100AD00002F004020192019A01900A6842F0400279
:100AE0000A600A6802F040020192019A01900A68C5
:100AF00042F040020A600A6802F040020192019A44
:100B000001900A6842F040020A600A6802F040025E
:100B10000192019A01900A6842F480720A600A68A0
:100B200002F480720192019A01900A6842F0007208
:100B30000A600A6802F000720192019A01900A6844
:100B400042F080620A600A6802F080620192019AB3
:100B500001900A6842F000620A60096801F00061D1
:100B6000019101990390032004900B2005902846E1
:100B70002146CDE9016600F0B1F904200190284634
:100B8000214600F0ABF9802001902846214600F074
:100B9000A5F9019605F500663046214600F09EF95C
:100BA000102001903046214600F098F92020019055
:100BB0003046214600F092F94FF4006005F5C0552B
:100BC00001902846214600F089F94FF40050019029
:100BD0002846214600F082F94FF4804001902846D3
:100BE000214600F07BF93D200121002200F0CAFAE5
:100BF0003D2000F0C3FA06B070BD000070B5044699
:100C000090F84400822804BF022070BD822084F83E
:100C10004400206815460269238A02F01C0203F092
:100C20001F0361F38A1242EAC3210131016100F01E
:100C300031FA064600F02EFA801BB0F5803F0CD248
:100C400020680069C007F5D12068406980B228603B
:100C5000012084F84400002070BD012084F8440085
:100C6000002084F84500032070BD0000B0B50446A4
:100C700090F8450001284FF0020008BFB0BD0125E3
:100C800084F8455084F844002046FFF741FC204694
:100C9000FFF72AFC2046FFF77BFB2046FFF75AFBB5
:100CA0002046FFF74FFB002084F8445084F84500AD
:100CB000B0BD000070B590F84520012A4FF0020247
:100CC00049D0012380F8453080F84420D1B3C36A6D
:100CD0001A68002A38D440F2F55291424FF00102CE
:100CE00010D34BF20B05CAF60245A1FB055C4FEA97
:100CF0009C2540F2F45405FB1414002C18BF02EBA1
:100D00009C252A4672B1012A27D11A686FF35F31F8
:100D100042F04052DD681A605960196841F00041A4
:100D20001960C562016841F214028A5852074FF0F7
:100D3000000205D541F20403194404230B610A6043
:100D4000012303E0012201E001221223002180F8A7
:100D5000443080F84510104670BD4FF60C25531EE8
:100D6000CFF6FF7503FB051CC46A6FF35F3C0021DF
:100D700040F2F45E09E000BF2668E56846F00046F0
:100D8000013126608A422C46CBD0256825F040559B
:100D9000256019B9256845F0805525608B42C4F857
:100DA00004E0E9D1256845F000552560C4F804C089
:100DB000E2E70000B0B5044690F84400422804BFC2
:100DC0000220B0BD422084F84400206892B203693A
:100DD000258A03F01C0305F01F0561F38A1343EA1B
:100DE000C52103314261016100F054F9054600BF9D
:100DF00000F050F9401BB0F5803F08D22068006930
:100E0000C007F5D1012084F844000020B0BD0120C6
:100E100084F84400002084F845000320B0BD0000A1
:100E20002DE9F04387B04CF24001C2F201010A788B
:100E30000020002A0690CDE904000390029049D1D9
:100E40004FF0010881F80080019043F63800C4F2A9
:100E50000200016840F6004441F0010101600068B1
:100E6000C4F2020400F00100019001984FF23F002B
:100E700002AD02904FF0020903260C2704F5006032
:100E80002946CDE903980596069700F027F841F228
:100E90003F00CDE9020904F540602946CDE904860A
:100EA000069700F01BF84FF68370CDE9020904F5B0
:100EB00080602946CDE90486069700F00FF84FF6CA
:100EC0003370CDE9020920462946CDE9048606970C
:100ED00000F004F807B0BDE8F08300002DE9F04F02
:100EE00083B000F13E4202F1FF724FEAB22241F6B6
:100EF00000470192C4F2020708224FF0010E0025BC
:100F00004FF0000A4FF00008B84208BF07220092D5
:100F10000AE000BF08F101080AF1040AB8F1100F55
:100F200005F1020500F0A4800C680EFA08FB14EA33
:100F30000B09EFD04C6804F0030CACF1010EBEF1CC
:100F4000010F11D80322876802FA05F6CA68B74371
:100F5000AA403A4382604268C4F3001722EA0B02B7
:100F600007FA08F73A434260BCF1030F1CD0C2688D
:100F700003238E6803FA05F7BA4306FA05F73A43E6
:100F8000BCF1020FC2600FD16FF0030202EA5802F7
:100F900002440AF01C060F23176A03FA06F40B69D1
:100FA000A743B3403B431362026803234F68AB403F
:100FB0009A4307F00303AB401A4317F4403F4FF046
:100FC000010E0260A6D0002243F644030292C4F24E
:100FD00002031A6843F6004442F480421A601A6819
:100FE000C4F2010402F480420292029A28F0030241
:100FF0004FF6084B2244CFF6FF7B52F80B300AF035
:101000000C070F26BE4023EA060C019B009E072B0F
:1010100038BF1E4606FA07F747EA0C0342F80B30C2
:10102000A2684B6842EA090743F60C4CDE0258BF3F
:1010300022EA0907A760C4F2010CDCF800209E0236
:1010400042EA090758BF22EA0907CCF80070626833
:101050009E0342EA090758BF22EA0907676022682F
:10106000DB0342EA090358BF22EA0903236051E780
:1010700003B0BDE8F08F0000426902EA010391432A
:1010800041EA034181617047002A08BF0904816178
:10109000704700004EF28C00C2F2010000687047F9
:1010A0004CF238004EF28C01C2F20100C2F2010192
:1010B00000780A68104408607047000080B543F665
:1010C0000040C4F20200016841F40071016001684F
:1010D00041F480610160016841F480710160032086
:1010E00000F060F80F2000F005F800F02BF8002069
:1010F00080BD0000B0B54CF23802C2F201024CF2E1
:1011000008011278C2F201014FF47A730968B3FB47
:10111000F2F20446B1FBF2F1084600F02BFB0F2C73
:101120004FF001050CD858B94FF0FF30214600228E
:10113000002500F027F84CF23C00C2F201000460E8
:101140002846B0BD82B0002043F640010190C4F2B1
:1011500002014A6842F480424A604A6802F48042CE
:101160000192019A0090086840F080500860086879
:1011700000F080500090009802B0704780B500F0F9
:1011800099FD80BD70B514460D46064600F0A2FDDF
:101190002946224600F01EFC0146304600F0A2FD22
:1011A00070BD000080B500F0AFFD80BD2DE9F041BD
:1011B000002800F08B8043F60808C4F202080446B9
:1011C000D8F8F8030D4600F00700884207D288F8E7
:1011D000F853D8F8F80300F00700A84276D1206849
:1011E000810717D5410705D5D8F8001041F4E05123
:1011F000C8F80010010705D5D8F8001041F4604187
:10120000C8F80010D8F80010A26821F0F0011143CE
:10121000C8F80010C0073FD1D8F8F80300F0070065
:10122000A84207D988F8F853D8F8F80300F0070067
:10123000A8424BD12068410707D5D8F80010E268D2
:1012400021F4E0511143C8F80010000708D5D8F880
:101250000000216920F4604040EAC100C8F80000A5
:1012600000F07EF8D8F800104BF6AC02C1F3031181
:10127000C0F60002515C4CF2080220FA01F14CF277
:101280003C00C2F201000068C2F201021160FFF7E7
:1012900031FF0020BDE8F0816068811E022907D27D
:1012A00058F8081C89015CBF0120BDE8F08110E0FE
:1012B000012807D158F8081C89035CBF0120BDE84C
:1012C000F08106E058F8081C890702D40120BDE827
:1012D000F081D8F8001021F003010843C8F800009D
:1012E000FFF7D8FE064641F2883700BFD8F8000065
:1012F000616800F00C00B0EB810F8DD0FFF7CAFEE3
:10130000801BB842F2D90320BDE8F0814CF20800FE
:10131000C2F201000068704780B5FFF7F7FF43F69F
:101320000801C4F2020109684BF6BC02C1F3822134
:10133000C0F60002515CC84080BD000080B5FFF7D8
:10134000E5FF43F60801C4F2020109684BF6BC024E
:10135000C1F34231C0F60002515CC84080BD0000BC
:1013600010B543F60404C4F20204606800F00C00F7
:1013700008280AD0042819BF42F20040C0F2F40045
:1013800047F64000C0F27D1010BD20682168236838
:10139000490247F64001C0F27D1100F03F02C3F35D
:1013A00088105CBF42F20041C0F2F401A1FB0001D1
:1013B0000023FEF705FF21680222C1F3014102EB81
:1013C0004101B0FBF1F010BD2DE9F04182B00028E1
:1013D00000F0A2800446007843F60006C007C4F27D
:1013E000020643D0B06800F00C00042805D1306834
:1013F00080033BD56068C8BB8EE0B06800F00C008D
:10140000082802D170684002F1D46568B5F5A02FB4
:101410000AD0B5F5803F0BD0306820F480303060C2
:10142000306820F4802006E0306840F4802030608E
:10143000306840F480303060FFF72CFE002D054608
:1014400011D000BF3068800310D4FFF723FE401B8B
:101450006428F7D922E100BFFFF71CFE401B642877
:101460004FF0030055D830688003F5D4207880070A
:101470001AD5B06810F00C0F09D0B06800F00C005D
:10148000082840F08A807068400200F18680306849
:10149000800702D5E06801283ED13068216920F03C
:1014A000F80040EAC10030602078000738D4207886
:1014B00040074CD4A5695DB3B06800F00C00082863
:1014C00040F09E80012D27D07068E16900F4800211
:1014D0008A4221D1216A00F03F028A421CD147F69C
:1014E000C071626A0140B1EB821F15D1A26A00236C
:1014F000CFF6FF7303EBC23200F440316FF30F02FB
:10150000914209D1E16A00F07060B0EB016F03D144
:10151000002002B0BDE8F081012002B0BDE8F081FA
:101520006069002840F20000C4F2472057D0012132
:10153000C0F8801EFFF7AEFD054600BF706F800744
:10154000B5D4FFF7A7FD401B0228F7D9A6E0306C01
:1015500010F080580AD100200190306C40F080508B
:101560003064306C00F080500190019847F2000721
:10157000C4F200073868C00524D4386840F480708D
:101580003860FFF787FD05463868C0051AD4FFF7B5
:1015900081FD401B0228F7D980E0E068002851D087
:1015A0000020C4F2472001210160FFF773FD0546CA
:1015B000306880073FF571AFFFF76CFD401B0228D4
:1015C000F6D96BE0A568052D50D0012D52D0306FB3
:1015D00020F001003067306F20F004004DE0002162
:1015E000C0F8801EFFF756FD054600BF706F8007EC
:1015F0007FF55DAFFFF74EFD401B0228F6D94DE0A9
:101600000027C4F2472700203866FFF743FD022D6C
:1016100005460BD13068800158D5FFF73BFD401BD4
:1016200002284FF00300F5D973E700BF306880014E
:101630007FF56EAFFFF72EFD401B02284FF0030031
:10164000F4D966E70020C4F2472000210160FFF7CB
:1016500021FD0546306880077FF526AFFFF71AFDAC
:10166000401B02284FF00300F4D952E7306F40F0DE
:1016700004003067306F40F001003067FFF70AFD6B
:10168000002D054641F2883714D000BF306F800727
:1016900013D4FFF7FFFC401BB842F7D9032002B078
:1016A000BDE8F081FFF7F6FC401BB8424FF00300A5
:1016B0003FF62FAF306F8007F4D4B8F1000F7FF4FE
:1016C000F9AE306C20F080503064F3E604F11C0574
:1016D0002FCD08430021CFF6FF7140EA821001EBC5
:1016E000C3316FF30F0140EA0560084370600120C9
:1016F0003866FFF7CFFC0446306880013FF508AF3D
:10170000FFF7C8FC001B02284FF00300F4D900E7E4
:10171000002804BF0120704770B5044690F84900C6
:1017200015460E4628B9002084F84800204600F0EF
:101730001DF8206804F10801FEF724FF2068A26864
:101740003146FEF763FFD4E90102236B2946FEF719
:10175000F7FE2068A16850F8212042F0010240F80D
:101760002120012084F84900002070BD80B5FFF7DA
:1017700057FB80BD80B500F0B3F980BD002804BFE1
:101780000120704710B5044690F8410028B90020A8
:1017900084F84000204600F021F8242084F841001D
:1017A0002068C16821F40051C160204600F012FA9F
:1017B0002068016921F490410161416921F02A0109
:1017C0004161C16841F40051C16000202021606482
:1017D00084F8411084F84210606310BD80B586B073
:1017E00041F200010068C4F2010100228842059222
:1017F000CDE903220292019201D006B080BD43F6EA
:1018000030000092C4F20200436943F010034361C8
:10181000436903F010030093009B0092036843F0B8
:1018200001030360006800F00100009000984FF48D
:10183000C06001900220CDE902020320049007203D
:10184000059001F5704001A9FFF748FB06B080BD87
:1018500041F20044C4F2020420464021FFF70CFC90
:10186000FAE7000080B588B04CF22420C2F20100F3
:101870004FF0204240F204130021CAF200034FF05F
:10188000060C80E80C104FF480524FF0100E4FF40D
:101890008013C0E90A2108220791CDE90511CDE99D
:1018A0000311CDE90111C0E90311C0E905E1C161EE
:1018B000C0E90811C0E90C11C0E90E134164CDE97B
:1018C0000111CDE90321CDE90511079101A90A46CE
:1018D000FFF71EFF002818BFFEF72EFE02A009F03A
:1018E000D3FF08B080BD00BF7372616D20696E695F
:1018F00074206F6B210D000081B0002143F6300091
:101900000091C4F20200026842F004020260026820
:1019100002F004020092009A0091026842F0200254
:101920000260026802F020020092009A00910268B0
:1019300042F080020260026802F080020092009A87
:101940000091026842F040020260026802F0400228
:101950000092009A0091026842F010020260026850
:1019600002F010020092009A0091026842F0080210
:101970000260026802F008020092009A0091016879
:1019800041F001010160006800F001000090009842
:1019900001B0704780B54CF2742041F20001C2F2F0
:1019A0000100C4F2010100234FF00C0C4FF4E132AE
:1019B00080E80E00C0E90333C0E905C3C361FFF747
:1019C000DDFE002818BFFEF7B7FD80BDFEE7000072
:1019D000FEE7000000F0070080F00703042B28BF9B
:1019E00004234FF0FF3C03380CFA03F338BF002008
:1019F000994381400CFA00F022EA00000843704746
:101A00007047000010B512A009F03EFF4FF0D8401B
:101A1000AA21017014A0AA2109F0B6FD0A24C6F675
:101A200000444BF6BB30208016A04BF6BB3109F0CA
:101A3000ABFD4FF0CC30C4F80A001AA04FF0CC3107
:101A400009F0A2FD20A009F01FFF002010BD00BF7B
:101A5000706F696E746572206D6574686F64207450
:101A6000657374210D0000007772697465203D2054
:101A7000307841412C2072656164203D203078250A
:101A8000580D0A007772697465203D203078424213
:101A900042422C2072656164203D20307825580D2B
:101AA0000A0000007772697465203D203078434356
:101AB0004343434343432C2072656164203D2030FF
:101AC0007825580D0A0000005352414D205465738B
:101AD000742053756363657373210D0070470000B4
:101AE000B0B501380024B4EB106F1CBF0120B0BDAD
:101AF0004EF21005CEF2000568604FF0FF300F2166
:101B000000F0F0F80720AC6028602046B0BD00006F
:101B100080B5FFF7C5FA80BD70B592B006AC20461F
:101B20003021FEF7B8FB002543F640000595CDE9CE
:101B30000355CDE901550095C4F202000168022663
:101B400041F080510160006800F0805000900098E2
:101B500047F200000095C4F20000016841F48041A2
:101B60000160006800F48040009000980120069019
:101B70004FF4803007904FF480000D9019200E90A4
:101B80004FF4A870CDE90F060420119020460C9662
:101B9000FFF71AFC88B90F20CDE901064FF4A050D9
:101BA00004904FF48050059001A805210395FFF79C
:101BB000FDFA002804BF12B070BDFEF7BDFC0000A6
:101BC0004EF68850CEF20000016841F470010160C9
:101BD0007047000010B504460068D4E902C22369CA
:101BE000016921F4405111430161626943EA0C012A
:101BF000E3691143C268194349F20C639A431143E4
:101C0000C1604169A26921F4407141F2004311436E
:101C100040F48062C4F201039A42416102D1FFF7AD
:101C20008DFB01E0FFF778FBE16963681922B1F5EC
:101C3000004FA0FB02011CD15A00DB0FFEF7C0FAD7
:101C400048F21F51C5F2EB11A0FB01235A096FF0B6
:101C5000630302FB0300322303EBC000A0FB01017E
:101C60004FF4F87000EA111000EB0210C1F34211BA
:101C70001AE09A009B0FFEF7A3FA48F21F51C5F233
:101C8000EB11A0FB01235A096FF0630302FB030071
:101C9000322303EB0010A0FB0101F02000EA5110F9
:101CA00000EB0210C1F3431122680843906010BD9D
:101CB000FEE70000002848BF704700F01F01012226
:101CC00002FA01F14EF200124009CEF2000242F88F
:101CD000201070474EF60C50CEF200000068C0F3A2
:101CE000022070474EF6145300F00F02CEF20003AC
:101CF00009011A4400F16043B0F1FF3FC8BF03F58A
:101D000064421170704700004EF60C51CEF2000193
:101D10000A684FF6FF031A4060F30A2242F080601F
:101D200040F0FD700860704780B560B1426A002ADB
:101D300008BF80BD5379082B05D10968D26991424B
:101D400008BF00F091F980BDB0B582B0002862D024
:101D5000456A0446002D5ED0A96A00206882481CAE
:101D600048F68900C8F688000CD01E31A1FB00128D
:101D700051094FF6FF73994238BF5309002B08BF32
:101D80000123AB82E96A4A1C0DD01E31A1FB00126F
:101D900051094FF6FF73994238BF5309002B08BF12
:101DA00001236B81EB81296B4A1C0DD01E31A1FBF5
:101DB000000148094FF6FF72904238BF4A09002AD5
:101DC00008BF0122AA812A82A8896989013880B2C4
:101DD00088423CBF00206881E87908B1286A0CE09D
:101DE00095F91C00002801D4FF2006E0C0B2C028ED
:101DF00034BF4FF6FF706FF07F400190686A0A2190
:101E00000090284601F0AAF805F11C0101AA6B46D2
:101E1000204604F037FB02B0B0BD0000B0B5446A04
:101E200005462046082101F099F804F11C012846D6
:101E3000002201F045FCA079FF281CBF0130A071F1
:101E400001202081B0BD000010B54EF22800C2F282
:101E50000100046801E000BF2468002C08BF10BD29
:101E6000606A0028F8D041790029F5D0818A69B1EB
:101E7000428A013293B28B42428207D1204600F05F
:101E8000E5FE204601F074F82468E6E7018A39B1DE
:101E90000139018204D1204601F0D8F82468DCE73A
:101EA000C1890029D8D00139C181D5D1204601F09E
:101EB000B3F8D1E72DE9F04381B000284FF00005D9
:101EC00077D00C46002974D09146074636204FF44F
:101ED0009A714FF42072984604F07CFB002867D07A
:101EE0000546408980084C280CD84BF6AC104BF6C0
:101EF0001773C0F6000031A1C0F6000340F2737200
:101F000009F042FBB9F1030F02D1607903280AD12D
:101F1000A0794CF23C16C2F2010610B9FEF782F924
:101F20003060306820606E684FF49A713046FEF77A
:101F3000B2F940F20110308097F830102068B1708B
:101F400003F062FCA9F10701022970600AD3B9F11C
:101F5000040F07D0B9F1030F06D1607900F0FE003D
:101F6000042801D17868F06007F12A001B2100BF26
:101F7000421812F81B2C7318013121295A70F7D11D
:101F800048F26320C6F2533006F1F004C6F8EC00C4
:101F9000002021463522012300F008FA21464A4656
:101FA00000F026FAB8F1000F18BFA8F8000000E012
:101FB0000025284601B0BDE8F08300BF6468637067
:101FC0005F6372656174655F6D73673A206368650E
:101FD000636B207468617420666972737420706228
:101FE00075662063616E20686F6C6420737472750F
:101FF000637420646863705F6D73670010B54CF2A2
:102000004414C2F20104207860B94BF6AC104BF6D0
:102010001773C0F600000BA1C0F600034FF48272E4
:1020200009F0B2FA207801380106207018BF10BDFF
:102030004CF24014C2F20104206809F0CDF90020EE
:10204000206010BD646863705F7063625F72656674
:10205000636F756E7428293A20726566636F756EBA
:1020600074206572726F72002DE9F04184B0446A89
:10207000804620460C2100F071FF0DF10E03404612
:1020800021460422FFF716FF90B341680646BDF8CB
:102090000E0001F1F00739463222042300F086F9E0
:1020A0000546E069ADF80E5003F0AEFB0246284647
:1020B000394600F0D1F939463246ADF80E0000F04D
:1020C00047FA4CF24010C2F2010000684BF6D40708
:1020D0004BF6D802C0F60007C0F600023146432393
:1020E000CDF80080019709F0C1F9304604F040FDB9
:1020F000A079FF281CBF0130A0711420208104B0FA
:10210000BDE8F0812DE9F04383B0446A80460020A9
:10211000E0612046062100F021FF0DF10A03404650
:1021200021460122FFF7C6FE00284AD041688146B9
:10213000BDF80A0001F1F00739463922022300F008
:1021400035F9B8F828203946ADF80A0000F0C6F98C
:10215000394637220323ADF80A0000F027F94BF681
:10216000C4064FF0FF35C0F60006ADF80A0000BF08
:102170007119BDF80A004A78394600F039F901357D
:10218000022DADF80A00F3D1BDF80A0039464A46DF
:1021900000F0DEF94CF24010C2F2010000684BF68C
:1021A000D4074BF6D802C0F60007C0F60002494635
:1021B0004323CDF80080019709F058F9484604F010
:1021C000D7FCA0794FF47A71FF281CBF0130A071B1
:1021D000A07940F2F312814012FA81F144F6D35211
:1021E000C1F26202A1FB02127821062838BF510910
:1021F000218103B0BDE8F08310B54EF22800C2F291
:102200000100046801E000BF2468002C08BF10BD75
:10221000606A0028F8D00189022903D301392468B3
:102220000181F2E70129EFD101390181204600F057
:1022300027FFE9E770B54CF24816446AC2F201067E
:102240000020F278206260624CF25015002AC2F23F
:1022500001051CBFE868A062307908B1286901E077
:10226000A06A40087279E0620AB1686903E0A06A76
:10227000C0EBC000C0082063B0790969E16128B1F2
:10228000A86903F0C1FA2062012000E00020E0719B
:10229000F079002808BF70BDE86903F0B5FA606204
:1022A00070BD000010B50446406A0C2100F056FED7
:1022B0004BF6D401C0F6000120460A460B4604F056
:1022C000E1F82046FFF71EFF10BD000070B54CF28C
:1022D0004812C2F201029278002A08BF70BD04467B
:1022E000466A4CF25010C2F2010080680D4600218F
:1022F000318103F089FA2969C6E90601204600F018
:1023000085FD70BD70B54CF24415C2F20105287808
:1023100070BB4CF24016C2F20106306858B14BF661
:10232000AC104BF61773C0F6000016A1C0F6000300
:10233000EA2209F029F909F003F83060F0B1417A96
:102340004BF6D40441F02001C0F60004417221464E
:10235000442208F0C9FD30682146432208F00CFEF3
:10236000306842F64931C0F60001002209F02EF82B
:10237000287801302870002040B270BDFF2040B2A4
:1023800070BD00BF646863705F696E635F70636295
:102390005F726566636F756E7428293A206D656D8E
:1023A0006F7279206C65616B00000000F0B581B040
:1023B0000646184402301C46154645280F460FD3E2
:1023C0004BF6AC104BF6D5614BF61773C0F6000018
:1023D000C0F60001C0F6000340F2995209F0D4F8AB
:1023E000701CB11C82B2BD5588B2BC5401B0F0BDA6
:1023F00070B51446054644280E460CD34BF6AC1077
:102400004BF61773C0F6000005A1C0F6000340F2BA
:10241000A55209F0B9F8681C80B2745570BD00BFB0
:10242000646863705F6F7074696F6E5F6279746502
:102430003A206F7074696F6E735F6F75745F6C654F
:102440006E203C20444843505F4F5054494F4E53F8
:102450005F4C454E0000000070B51446064641280A
:102460000D460CD34BF6AC104BF61773C0F60000BC
:102470000BA1C0F6000340F2B65209F085F8200E19
:10248000711CA855200CB21C89B26854200A92B263
:10249000F11CA854301D89B280B26C5470BD00BFCD
:1024A000646863705F6F7074696F6E5F6C6F6E6786
:1024B0003A206F7074696F6E735F6F75745F6C65CF
:1024C0006E202B2034203C3D20444843505F4F5029
:1024D00054494F4E535F4C454E00000070B51446B2
:1024E000064643280D460CD34BF6AC104BF617733B
:1024F000C0F6000007A1C0F6000340F2AD5209F09B
:1025000043F8200A711CA855B01C89B280B26C54E3
:1025100070BD00BF646863705F6F7074696F6E5FD9
:1025200073686F72743A206F7074696F6E735F6F47
:1025300075745F6C656E202B2032203C3D20444832
:1025400043505F4F5054494F4E535F4C454E00002F
:1025500010B51446421C93B2432B4FF0FF030B54AB
:102560000AD811FA82F2C0F14200012111FA80F179
:102570001046FDF790FE4320F13081B2204604F072
:10258000ADFB10BD2DE9F04F89B041894CF2481BDD
:10259000C2F2010B00222C29CBF80020CBF804203A
:1025A00002D24FF0FE0CC2E1002800F0BE81B0F86C
:1025B00008A00122F025039200220292044600BFE7
:1025C0006289ABB2934207D32468AD1A002CAAEB00
:1025D000020AF5D1A6E100BF66688C46049009E0C6
:1025E000049800BF4FF0FE0C4FF00108B8F1000F47
:1025F00040F09D81002C00F06481A9B21FFA8AF29C
:10260000914280F05E81725CFF2A00F05A814FF6A1
:10261000FB7302339BB29942E4D867894B1CBB42DF
:10262000CDE906C602D2334405E000BF2368002B83
:1026300000F04D805B681F783B2A00F24C804FF021
:10264000FF3813469146DFE812F053003C00460085
:102650004B00460046004600460046004600460045
:10266000460046004600460046004600460046003A
:10267000460046004600460046004600460046002A
:10268000460046004600460046004600460046001A
:10269000460046004600460046004600460046000A
:1026A00046004600460046004600460046004600FA
:1026B000BF00C400CD00D500460046004600DA0049
:1026C000DF00042F40F0AB804FF00608A0E00027A9
:1026D0003B2A7FF6B4AF4FF0FF384FF0000906E019
:1026E000032F40F29C804FF007084FF004093B464F
:1026F000002A00F0928019444FF6FD72914202D9EF
:102700004FF0FE0C8DE0B9F1000F01F102000190D5
:1027100000F08C80A81C05900020089007E000BF06
:10272000FA2006900020BB46002800F0A080B8F1F7
:10273000080F0CD34BF6AC104BF61773C0F6000025
:102740007FA140F27962C0F6000308F01DFF1BF87C
:102750000800002840F085805F465FFA89FB5D46EF
:10276000BBF1040F28BF0425059808A986B22046AE
:102770002A46334604F02EF9854259D1BBF1050FA4
:1027800058D35FEA8B704FF00105C9D10898BB465A
:1027900007F8085003F038F84CF25011C2F201016A
:1027A00041F828004FF6FB708642A9F1040903D9CD
:1027B000FE2006900020B7E7059808F101080430D4
:1027C00005901C250120AFE7042F28D14FF0030806
:1027D0001EE0079E012F26D1039BDB0723D04FF07D
:1027E000000815E0012F4FF0010811D0079E4FF0AF
:1027F000FA0CFBE6042F12D14FF0020808E0042F78
:102800000DD14FF0040803E0042F08D14FF0050864
:102810003B46B946002A7FF46EAF6A1C2FE04FF0AA
:10282000FA0C079EE0E64FF0FA0CDDE6019A26E08E
:10283000FE2019E0BBF1010F06D0BBF1040F12D14D
:10284000089802F0E1FF01E09DF82000012107F85F
:1028500008104CF25011BB46C2F20101089041F839
:102860002800002503E0FA2006900125BB46019AC6
:102870002DB10498DDE906C6A8461546B6E661897D
:1028800090B2079E884204D204984FF00008154683
:102890000EE0551AAAEB010AAAB21FFA8AF18A427F
:1028A000BFF49EAE246804982CB166684FF000080F
:1028B000DDF818C09AE64FF0FA0C4FF0010800243A
:1028C00094E69BF8001091B14CF25011C2F2010154
:1028D0000968002201298BF8002009D0032910D0B3
:1028E000022904D101210122029112B90EE0012234
:1028F00062B1029901B300212C254FF06C0A0291BC
:1029000007E0012102910022002AF2D16C254FF04C
:10291000EC0A00210391002861464FF0FE0C7FF481
:102920004DAE04E04FF0FE0C01E04FF0FE0C4FFA0C
:102930008CF009B0BDE8F08F4FF0000CF7E700BF56
:10294000636865636B206465636F64655F69647861
:10295000000000002DE9F04383B0446A8046204621
:10296000042100F0FBFA0DF10A0340462146032240
:10297000FFF7A0FA002845D041688146BDF80A005B
:1029800001F1F007394639220223FFF70FFDB8F8AD
:1029900028203946ADF80A00FFF7A0FD3946372256
:1029A0000323ADF80A00FFF701FD4BF6C4064FF014
:1029B000FF35C0F60006ADF80A0000BF7119BDF87A
:1029C0000A004A783946FFF713FD0135022DADF8AC
:1029D0000A00F3D1BDF80A0039464A46FFF7B8FDB0
:1029E0004CF24010C2F2010000684BF6D802C0F66B
:1029F000000249464323CDF8008008F00BFD48460D
:102A000004F0B6F8A0794FF47A71FF281CBF0130AA
:102A1000A071A07940F2F312414312FA81F144F619
:102A2000D352C1F26202A1FB021214210A2838BF5C
:102A30005109218103B0BDE8F08300002DE9F04386
:102A400083B0446A80462046032100F087FA0DF1E6
:102A50000A03404621460322FFF72CFA002857D0EC
:102A600041688146BDF80A0001F1F0073946392274
:102A70000223FFF79BFC39464FF41072ADF80A00B1
:102A8000FFF72CFD394632220423ADF80A00FFF788
:102A90008DFC0546E069ADF80A5002F0B5FE02462D
:102AA00028463946FFF7D8FC394637220323ADF8CC
:102AB0000A00FFF77BFC4BF6C4064FF0FF35C0F66B
:102AC0000006ADF80A0000BF7119BDF80A004A7887
:102AD0003946FFF78DFC0135022DADF80A00F3D120
:102AE000BDF80A0039464A46FFF732FD4CF2401065
:102AF000C2F2010000684BF6D802C0F60002494657
:102B00004323CDF8008008F085FC484604F030F8F7
:102B1000A0794FF47A71FF281CBF0130A071A07911
:102B200040F2F312414312FA81F144F6D352C1F25A
:102B30006202A1FB021214210A2838BF5109218127
:102B400003B0BDE8F0830000F0B581B04CF2D820AE
:102B5000C2F20100456817466E6A002E6DD03079CA
:102B600000286AD078892C2867D3D7F804C09CF84D
:102B70000010022961D195F8301099B105F12A01B0
:102B80000CF11C02002300BF08781478A04254D135
:102B9000042B07D895F8300001330131834202F14C
:102BA0000102F1D3DCF8040002F02EFE3168884205
:102BB00043D13846FFF7E6FC00283ED14CF24810DE
:102BC000C2F201004078C0B34CF25010C2F20100D2
:102BD0000079796802282AD006280CD005282CD143
:102BE0007079C21E032A13D22846FFF723FB28461A
:102BF000FFF7AAF821E07279052A16D8012303FA13
:102C000002F212F03A0F10D02846FFF74BFB14E007
:102C1000012812D12846FFF70DFB95F83100000777
:102C200010D42846FFF790F807E0022805D1707904
:102C3000062802D12846FFF749FB384603F098FFE3
:102C400001B0F0BD2846FFF7E9F8F6E72DE9F041BD
:102C500084B0446A002C60D00546607900285CD0BE
:102C6000A06903900020C4F81200C4F80E00C4E963
:102C70000600C4E90800C4E90A002063284600F001
:102C8000B3F900283FD02046002100F067F90DF18C
:102C90000A03284621460722FFF70CF948B341688A
:102CA0000646BDF80A0001F1F00841463622042329
:102CB000FFF77CFB07460398ADF80A7002F0A4FD0D
:102CC000024638464146FFF7C7FB41463246ADF85B
:102CD0000A00FFF73DFC4CF24010C2F20100006810
:102CE00003AA31464323009508F094FB304603F0D5
:102CF0003FFF4BF6D401C0F6000128460A460B46BA
:102D000003F0C0FB03E02046002100F027F9207902
:102D100018B1FFF773F90020207104B0BDE8F0810D
:102D20002DE9F04383B0446A80462046052100F037
:102D300015F90DF10A03404621460322FFF7BAF8C0
:102D4000002845D041688146BDF80A0001F1F0072E
:102D5000394639220223FFF729FBB8F828203946E3
:102D6000ADF80A00FFF7BAFB394637220323ADF866
:102D70000A00FFF71BFB4BF6C4064FF0FF35C0F609
:102D80000006ADF80A0000BF7119BDF80A004A78C4
:102D90003946FFF72DFB0135022DADF80A00F3D1BE
:102DA000BDF80A0039464A46FFF7D2FB4CF2401004
:102DB000C2F20100006804F1180249464323CDF82D
:102DC000008008F027FB0546484603F0D1FE00E0EE
:102DD000FF25A0794FF4FA61FF281CBF0130A071D4
:102DE000A07940F2F312414312FA81F144F6D35232
:102DF000C1F26202A1FB021228210A2838BF510940
:102E000068B2218103B0BDE8F08300002DE9F043F2
:102E100083B0002800F09E80D0F824900546B9F1D8
:102E2000000F00F097804846012100F097F80DF15F
:102E30000A03284649460322FFF73CF800286DD0D4
:102E400041688046BDF80A0001F1F0073946392291
:102E50000223FFF7ABFA2A8D3946ADF80A00FFF7D7
:102E60003DFB394632220423ADF80A00FFF79EFAF3
:102E70000646D9F81C00ADF80A6002F0C5FC02460F
:102E800030463946FFF7E8FA394636220423ADF8D2
:102E90000A00FFF78BFA0646D9F81800ADF80A6069
:102EA00002F0B2FC024630463946FFF7D5FA394601
:102EB00037220323ADF80A00FFF778FA4BF6C40473
:102EC0004FF0FF36C0F60004ADF80A00A119BDF8B6
:102ED0000A004A783946FFF78BFA0136022EADF820
:102EE0000A00F3D1BDF80A0039464246FFF730FB2D
:102EF0004CF24010C2F2010000684BF6D4074BF6CA
:102F0000D802C0F60007C0F60002414643230095F0
:102F1000019708F0ABFA404603F02AFE99F8060044
:102F20004FF47A71FF281CBF013089F8060099F828
:102F3000060040F2F312814012FA81F144F6D352B6
:102F4000C1F26202A1FB02127821062838BF5109A2
:102F5000A9F8081003B0BDE8F083000042798A4266
:102F600008BF7047417100218171018170470000E5
:102F7000B0B520B1044690F83100C00702D1F0206E
:102F800040B2B0BD208DB0F5107F14D3656A2DB16D
:102F90002879002818BFFFF731F805E0342002F047
:102FA00015FE40B10546606228463421FDF773F9ED
:102FB000FFF7A8F910B1FF2040B2B0BD94F831007E
:102FC00001214007297104D428460221FFF7C6FFDA
:102FD00002E02046FFF796F8002040B2B0BD0000A6
:102FE00080B5FFF733FE80BD002804BF0020704786
:102FF000416A0020002908BF704749790439CAB2E4
:10300000072A01F07F014FF0430238BF012022FA66
:1030100001F108407047000010B5446A61790A293F
:1030200088BF10BD012202FA01F140F22242114292
:103030000AD0FFF775FEA089618A401A0228A2BF54
:1030400000EBD0704008E08110BD000010B5446A6C
:1030500061790A2988BF10BD012202FA01F140F20C
:10306000324211420AD0FFF775FCA08A618A401AE9
:103070000228A2BF00EBD0704008208210BD0000E3
:1030800010B50446406A417901390B2988BF10BD4B
:10309000DFE801F00A29112929062918292929061A
:1030A0002046FFF72FF810BD8079052811D820465B
:1030B000FFF7ACFE10BD8079012811D82046FFF73C
:1030C000BDFC10BD807901280ED82046FEF7A6FE73
:1030D00010BD2046FFF7BAFD2046FFF749FF10BD9F
:1030E0002046FFF70FF810BD2046FEF72DFE10BD5D
:1030F000B0B50C46890705460CD04BF6AC104BF624
:103100005023C0F6000006A1C0F6000340F26D1285
:1031100008F03AFAA868016821600460B0BD00BFF9
:103120006D656D705F667265653A206D656D2070C6
:10313000726F7065726C7920616C69676E6564008E
:1031400010B58068046894B12168A20701600CD0B2
:103150004BF6AC104BF65023C0F6000005A1C0F6AC
:10316000000340F2191208F00FFA204610BD0020AB
:1031700010BD00BF6D656D705F6D616C6C6F633A03
:10318000206D656D702070726F7065726C79206152
:103190006C69676E6564000070B504464CF24800C7
:1031A000C2F2010000F11406002505E001350A2DE8
:1031B00006F1180608BF70BD30780028F6D056F822
:1031C0000C0CA042F2D1284600F0FAF8EEE700001D
:1031D0002DE9F04F85B083460A2004904CF2480A4E
:1031E0000A20039201910023C2F2010A0026002264
:1031F0004FF0000C4FF000090A244FF00A0E029025
:103200000AEB0300057DA1B20A2908BF002D1BD0DF
:1032100085B3BBF1000F09D0DBF800104768B94255
:1032200004D1039FD7B18168B94217D0012D0FD1C6
:103230005AF80310408AA9B10499484528BF31467D
:10324000049128BF814615E04FF00108344613E091
:10325000408A904224BFB64602460BE04FF0000879
:10326000009609E00299604528BF3146029128BFC7
:10327000844600BF4FF00108B8F1000F29D0183381
:10328000F02B06F10106BBD1019A4FF6FF719007B2
:1032900020D4D00702D1A0B20A281BD020B20A281D
:1032A0003ADB0FFA8EF0092818DC00EB40005AF8E0
:1032B00030007446D0B14BF6AC104BF6BB73C0F681
:1032C00000002EA1C0F6000340F26D1208F05CF978
:1032D0000CE0009908B205B0BDE8F08F029C20B266
:1032E0000A2803DB049C20B20928F3DC26B20A2E4C
:1032F0000FDB4BF6AC104BF681714BF6BB73C0F68F
:103300000000C0F60001C0F6000340F27F1208F092
:103310003BF9304600F054F825B20A2D0FDB4BF68E
:10332000AC104BF681714BF6BB73C0F60000C0F6D3
:103330000001C0F6000340F2831208F025F905EB06
:1033400045000AEBC005287D039E60B14BF6AC102A
:103350004BF6BB73C0F600000EA1C0F6000340F2AE
:10336000851208F011F9BBF1000F1CBFDBF800005B
:103370006860002021466882AE60ABE76172705FD2
:103380007461626C655B695D2E71203D3D204E5518
:103390004C4C00006172705F7461626C655B695DCA
:1033A0002E7374617465203D3D2045544841525050
:1033B0005F53544154455F454D505459000000003F
:1033C00010B54CF2480200EB4001C2F2010252F883
:1033D000310002EBC10418B103F0CAFB00202060E9
:1033E0000020207510BD0000002908BF70472DE99E
:1033F000F04786B0476804463888B0F5807F3ED1F4
:10340000387906283BD17879042838D1788808287B
:1034100035D10D46AA465AF8040FD7F80E104FF0D2
:103420000103059120B1B9690E1A18BF012600E009
:10343000012607F108090DF11408284641464A46BD
:10344000002E18BF022300F04DFBF888B0F5007F76
:1034500011D0B0F5807F12D18EB905F12A01022773
:1034600028464A460B46CDE900A9CDF808800397C7
:1034700000F04CFA03E005A92846FEF755FC20466B
:1034800003F076FB06B0BDE8F047704770B584B036
:10349000164605460C4658B1E4B16EB3306829466D
:1034A00000F0ACFEC8B34BF6C703C0F6000348E01B
:1034B0004BF6AC104BF694714BF6BB73C0F60000A4
:1034C000C0F60001C0F6000340F21E3208F05CF8BE
:1034D000002CE2D14BF6AC104BF6A2714BF6BB734D
:1034E000C0F60000C0F60001C0F6000340F21F3233
:1034F00008F04AF8002ED1D14BF6AC104BF6AC7167
:103500004BF6BB73C0F60000C0F60001C0F6000326
:103510004FF4487208F038F8C0E7306800F0F00166
:10352000E0291AD101207178ADF808005E208DF8ED
:103530000A0001F07F00718802AB8DF80B00ADF836
:103540000C1005F12A024FF4006628462146009629
:1035500000F0ECFB40B204B070BD81B24FF6A9623E
:1035600091421EBFD5E90112484010EA020040D145
:103570004CF2701CC2F2010C9CF800204CF2480185
:1035800002EB4203C2F2010101EBC303187D0228E2
:103590000BD39868A84208D130685B68984204D180
:1035A0002846214600F02CF8D4E701F1140200214E
:1035B00005E000BF01310A2902F1180213D010788A
:1035C0000228F7D352F80C0CA842F3D1306852F815
:1035D000103C9842EED18CF80010CAB22846214621
:1035E00000F00EF8B6E728463146224600F068F8AB
:1035F000B0E72E4656F80C0F0028B9D1FC20A9E7F9
:10360000F0B581B04CF2480302EB4202C2F2010372
:1036100003EBC206374617F8142F0C46012A05465D
:103620000CD84BF6AC104BF6BB73C0F6000018A1DB
:10363000C0F6000340F2EF2207F0A6FF3878022818
:1036400018D1708AB0F58E7F07D9311D284600F059
:10365000F3F978B9032038700CE0B0F5877F09D30F
:10366000311D06F10C02284600F0EEF9002804BFD7
:103670000320387005F12A0206F10C034FF40067AD
:1036800028462146009700F051FB01B0F0BD00BF75
:103690006172705F7461626C655B6172705F6964B6
:1036A000785D2E7374617465203E3D204554484119
:1036B00052505F53544154455F535441424C45006E
:1036C0002DE9F04F81B00F460968054608462946A6
:1036D000904600F093FD08B1F02605E03868F0262A
:1036E000002818BF002F03D170B201B0BDE8F08FE1
:1036F00000F0F000E028F7D0384601212A46FFF715
:1037000067FD0446B0F1FF3F79DDA0B27F280CD3FE
:103710004BF6AC104BF6BB73C0F6000066A1C0F6CA
:10372000000340F2C13207F02FFF5FFA84FA4FEA3C
:103730004A004CF2480150FA84F0C2F2010101EB58
:10374000C00B1BF8149FB9F1000F07D101208BF8B3
:1037500000000AEB4A0001EBC00085609BF8000006
:1037600060B94BF6AC104BF6BB73C0F6000056A127
:10377000C0F6000340F2CF3207F006FFB8F1000FA9
:1037800018BFB9F1000F63D12846394600F054F94B
:10379000064680B9B9F1000F0DD09BF80000012852
:1037A00009D14CF248010AEB4A00C2F2010101EBD7
:1037B000C00000214182B8F1000F95D0B8F1000F90
:1037C0004AD09BF8000002281BD34CF27010C2F2C2
:1037D00001004CF2480104700AEB4A00C2F20101F8
:1037E00001EBC00005F12A0200F10C034FF4006761
:1037F00028464146009700F099FA064674E72646A7
:1038000072E701287FF470AFB8F1000F1CD04BF6BF
:10381000AC144BF6BB76C0F6000435A5C0F6000626
:10382000474678893989884208D1386830B12046BE
:10383000294640F2F932334607F0A6FE387B4006AF
:103840001BD43F68002FECD1404603F0D3FA1BE0B5
:10385000FF26B8F1000FB4D14BF6AC104BF6A271B5
:103860004BF6BB73C0F60000C0F60001C0F60003C3
:1038700040F2E93207F088FEA3E70E204FF42071F2
:10388000424603F071F880464CF24802B8F1000F4E
:10389000C2F201020DD00AEB4A0152F8310002EBEC
:1038A000C104002818BF03F063F90026C4F80080A3
:1038B0001AE7FF2618E700BF74797065206F7665F8
:1038C00072666C6F770000006172705F7461626C89
:1038D000655B695D2E7374617465203D3D205045C4
:1038E0004E44494E47206F7220535441424C45008C
:1038F0006E6F207061636B6574207175657565739B
:1039000020616C6C6F776564210000002DE9F04F39
:1039100081B01F4690460646894678B94BF6AC10F2
:103920004BF694714BF6BB73C0F60000C0F6000175
:10393000C0F6000340F25F4207F026FE0E201C2175
:103940004FF4207202F046FE002855D0044640890C
:10395000DDF834A01B280CD84BF6AC104BF6BB732B
:10396000C0F6000027A1C0F6000340F26B4207F04A
:103970000BFEDDF82CB06568504601F047FF96F865
:103980003010E88006290FD04BF6AC104BF6407192
:103990004BF6BB73C0F60000C0F60001C0F6000392
:1039A00040F2724207F0F0FDB8882146A8813868DD
:1039B00040F60607A860DBF800004A46C5F812008A
:1039C000BBF804004346E8820A980068C5F80E0078
:1039D0000C980068A86140F20010C0F2080028604E
:1039E00040F20640A8803046009700F09FF920463C
:1039F00003F0BEF8002000E0FF2040B201B0BDE8B7
:103A0000F08F00BF636865636B2074686174206623
:103A10006972737420706275662063616E20686FCE
:103A20006C6420737472756374206574686172705D
:103A30005F6864720000000080B54BF6C702C0F6F4
:103A4000000200F001F880BD10B584B000F12A0337
:103A50004BF6CD0400F1040C4FF0010EC0F600044B
:103A600002911946CDE900C4CDF80CE0FFF74EFFF6
:103A700004B010BDF0B581B04CF24800C2F20100B4
:103A800000F1140500240226042707E02046FFF772
:103A900097FC01340A2C05F1180520D0287800285D
:103AA000F7D035F8021C4A1C91B28B084A2B25F836
:103AB000022CEBD8012801D10529E7D2012805D035
:103AC00004280AD0032808BF2F70E2E755F80C0C31
:103AD000A5F11001FFF7B0FFDBE72E70D9E701B0C9
:103AE000F0BD0000F0B581B0054690F830001E46EC
:103AF000144606280F460CD04BF6AC104BF6BB73A1
:103B0000C0F6000020A1C0F6000340F2A91207F0A1
:103B10003BFD2FB1386818B1294600F06FFB08B1A2
:103B200001B0F0BD386800F0F000E028F8D0384669
:103B300031462A46FFF74CFB0028F1D44CF24802EC
:103B400000EB4001C2F2010202EBC1000223037547
:103B50008560236852F83160C360A3880021002E7D
:103B600003824182DCD0016005F12A024FF4006734
:103B7000284631462346009700F0D8F8304602F038
:103B8000F7FF01B0F0BD00BF6E657469662D3E6839
:103B900077616464725F6C656E203D3D20455448DA
:103BA0005F4857414444525F4C454E00016800292C
:103BB0005CBF01685FEA014101D5002070470168E0
:103BC000C905FAD50068C0F30D40704780B582B0D2
:103BD0004CF20C20C2F201000188D0F80200ADF8CE
:103BE000021001904CF2801048F20001C2F2010074
:103BF000C4F202014FF480434FF4006C012280E8CC
:103C00000E1000210DF102034FF4000C0182C0E9F7
:103C10000532C0E9071CFCF7EDFD002818BF0120A4
:103C200002B080BD70B5044640890F283FD3E07BC9
:103C30000D4618B995F834000130E07360680178DA
:103C40008689CA0716D0012908D1417891B98078B0
:103C50005E280FD1607B40F010000AE04BF6C701F0
:103C6000C0F600010622FCF721FB18B9607B40F08A
:103C700008006073B6F5C16F10D0082E17D195F803
:103C80003100000713D520460E2103F0D5F870B996
:103C90002046294600F0DEFB002070BD95F831007B
:103CA000000704D520460E2103F0C6F820B12046B7
:103CB00002F05EFF002070BD20462946FFF794FB0E
:103CC000002070BDF0B581B04CF27817C2F2010748
:103CD000386838BB4CF27C16C2F20106306808BB6B
:103CE0004CF2C815C2F201052868D8B94CF2CC14C0
:103CF000C2F201042068A8B90020802102F042FA33
:103D000038600020802102F03DFA3060002041F24E
:103D1000D07102F037FA2860002041F2D07102F031
:103D200031FA2060002001B0F0BD00002DE9F04123
:103D30000C460699804608461F46164601F066FD69
:103D4000054620460E2102F0FDFB18B1FE2040B2D0
:103D5000BDE8F08160688581B9888180396801603B
:103D6000B18841813168C0F8061098F83000062803
:103D700006D007A010A11DA340F2331207F004FCE7
:103D8000D8F8182040462146904740B2BDE8F0815F
:103D9000417373657274696F6E20222573222066E9
:103DA00061696C6564206174206C696E65202564AE
:103DB00020696E2025730A006E657469662D3E6861
:103DC00077616464725F6C656E206D7573742062D8
:103DD00065203620666F722065746865726E657442
:103DE0005F6F757470757421000000002E2E2F4DCA
:103DF0006964646C6577617265732F6C7769702F85
:103E00007372632F6E657469662F65746865726E70
:103E100065742E630000000080B582B001464CF24C
:103E20008010C2F2010001AAFCF7E8FE019802B07E
:103E300080BD000010B5044630B912A01BA11FA31D
:103E40004FF4AD7207F0A0FB042001F0BFFEB0B14B
:103E500046F66561618643F28D4145F2B532C0F6A2
:103E60000001C0F60002C4E9051204F12A01206233
:103E70000160204601F0F8F9002040B210BDFF209B
:103E800040B210BD417373657274696F6E20222554
:103E90007322206661696C6564206174206C696EB0
:103EA0006520256420696E2025730A006E6574699B
:103EB0006620213D204E554C4C0000002E2E2F4DEB
:103EC0006964646C6577617265732F6C7769702FB4
:103ED000617263682F65746865726E657469662EB9
:103EE00063000000B0B5054601F0F2F948B12A6957
:103EF000294604469047002808BFB0BD204602F07E
:103F000037FEB0BD41F20001C4F201010A68520659
:103F1000FCD5C2B24A60704780B50A46032100F062
:103F2000D9F880BD2DE9F04383B04CF2D826C2F217
:103F30000106B568884629783C2202EA8107142FD9
:103F4000044616D36089042813D3606800780828D3
:103F50000FD1706900F0F001E0290AD0316800F05B
:103F60004DF930B92089082803D3204600F01CF908
:103F700028B1204602F0FCFD03B0BDE8F08307F154
:103F80000E092046494602F0DDFA40B32089384444
:103F900081B281423DD10E204FF4207202F01AFB13
:103FA000B8B38146408907F1080181422ED8D9F87B
:103FB000040029463A46FCF747F94846394602F0DC
:103FC0003BFFF0B14BF6AC104BF6E673C0F60000C9
:103FD00025A1C0F60003B62207F0D6FA16E0204667
:103FE000494602F029FFB8B14BF6AC104BF6E67328
:103FF000C0F600002AA1C0F60003C72207F0C4FAE9
:10400000B7E74846214602F0D7FC28B3484602F0FD
:10401000AFFD00200028ACD065682046394602F08C
:1040200091FA0028A5D156F8140F616856F8042CAF
:10403000C8600A610020FF220A72488101212870AD
:104040006880CDE90001204631460022FF23CDF8EB
:10405000088000F0F1FA8CE7204602F089FD01208B
:104060004C460028D8D184E769636D705F696E7033
:1040700075743A206D6F76696E6720722D3E70619F
:10408000796C6F616420746F2069636D702068655E
:1040900061646572206661696C65640A00000000F5
:1040A00069636D705F696E7075743A2072657374C0
:1040B0006F72696E67206F726967696E616C2070DC
:1040C0002D3E7061796C6F6164206661696C656416
:1040D0000A0000002DE9F04385B0058990461C2DAB
:1040E00028BF1C2505F1080607468946B1B22220E3
:1040F0004FF4207202F06EFAB0B304464089864253
:104100000CD94BF6AC104BF6E673C0F6000018A1C4
:10411000C0F6000340F26F1207F036FA66687F6857
:1041200086F801804FF0000806F1080039462A465B
:1041300086F80090C6F80480FCF786F8F8680490CA
:1041400004A800F057FC60B107460120A6F80280E1
:10415000CDE9008004AA20460021FF23029700F049
:104160006BFA204602F004FD05B0BDE8F08300BF05
:10417000636865636B207468617420666972737428
:1041800020706275662063616E20686F6C642069C0
:10419000636D70206D6573736167650080B50A4655
:1041A0000B21FFF797FF80BDF0B581B0D8B1044671
:1041B0000027002665896068294601F067FB3044C6
:1041C000010C11FA80F615F0010031BA18BF0E0C7F
:1041D0002468B7FA87F018BF4709002CEAD1B7FA6C
:1041E00087F0400901E00120002631BA002808BF0D
:1041F0000E0CF04380B201B0F0BD0000421C022A58
:104200003CBF0120704791F83120920702D54A68DF
:10421000824201D10020704789684240114205D195
:10422000CA438843904204BF012070470020704772
:104230002DE9F04F8DB046680446307800F00F004D
:10424000052826D160891428C0F0E280F088B1F8F2
:10425000288017460D4601F0D9FA2189A1F11402F0
:10426000110400F0D780A8F1140101EB5171C910BD
:1042700000F400536FF35F300B90C800CDE9045792
:1042800080B24FF0140B002506960293039107901D
:1042900039E0FA26BFE000BFDDF810900B9FB9F8B7
:1042A0002800099BA0F1140138466FF35F3000F538
:1042B00000529942B8BF10460299AB44002918BF7A
:1042C000104601F0A3FADDF820A0AAF806000C9829
:1042D000143080B201F09AFAD9F81430059AAAF88D
:1042E0000200002648464146AAF80A609847404620
:1042F00002F03EFC0A9A0C98121A10040398074424
:104300000B9700F08880079E0A9297B20E20142126
:104310004FF42072BE4288BF3E4602F05BF900288F
:104320007DD08046408913280CD84BF6AC104CF257
:104330004303C0F600003BA140F22532C0F6000363
:1043400007F022F9D8F8040006991422FBF77CFF45
:10435000D8F804000C96CDE908071EB99CE700BF09
:10436000300499D065891FFA8BF7BD420CD24BF609
:10437000AC104CF24303C0F6000032A140F22D32E3
:10438000C0F6000307F000F9A5EB0B05A8B2B1B227
:10439000814238BF3546280426D000F0CBFB68B3F5
:1043A00082466068A9B238440090002041225346FA
:1043B000019102F051FAF0B18146204602F01AFD57
:1043C00045F22110C0F60000CAE9040440464946FF
:1043D00002F060FA761B30041CBF24684FF0000B1B
:1043E00000200B2810D1BBE724680B204FF0000BF6
:1043F0000B2809D1B4E7504600F0A2FB404602F07A
:10440000B7FB06200B28ABD00028A9D0FF2602E07E
:10441000FA2600E0002670B20DB0BDE8F08FFF264E
:10442000F9E700BF74686973206E65656473206185
:10443000207062756620696E206F6E6520706965F8
:1044400063652100702D3E6C656E203E3D20706FCF
:10445000666600002DE9F047456804462A7802F0B8
:10446000F000402814D168880E463C2101EA820AF7
:1044700001F0CCF921890746884203D2204639460B
:1044800002F02CFC6089504528BFBAF1140F05D208
:10449000204602F06DFB0020BDE8F08720898742AE
:1044A000F6D8E86829694CF2D829C2F20109C9F89E
:1044B000100001F0F000E028C9F8141006D196F8B9
:1044C0003100C00720D14FF0000823E0304600F053
:1044D0009DF8B046F0B999F814004FF000087F2815
:1044E00018D04EF22800C2F2010007681FB911E08F
:1044F0003F68002FE7D0B742FAD0384600F086F880
:104500000028F5D0B84605E07068B046002808BF1E
:104510004FF00008B8F1000F10D1687A4FF0000892
:1045200011280BD105EB0A004088B0F58840B0FA9D
:1045300080F04FEA501008BFB04600E0002068B994
:10454000D9F8100050B13146FFF758FE00289FD12E
:10455000D9F8100000F0F000E02899D0B8F1000F71
:104560003FF496AFE8886FF0C001084206D02046BD
:1045700000F00EF9002845D04568044628783C2113
:1045800001EA8000A9F80C0020465146C9E90086DE
:10459000C9F8085002F050FC687A012808D00628B3
:1045A0000BD011280ED12046314606F01FFD20E029
:1045B00020463146FFF7B6FC1BE02046314603F0AB
:1045C0004BFB16E0D9F814004146FFF717FE68B917
:1045D000D9F8140000F0F000E02807D0204651463A
:1045E00002F05AFB20460221FFF796FC204602F01B
:1045F000BFFA0020C9E90400C9E90000C9F80800B1
:10460000A9F80C000020BDE8F087000080B5014645
:1046100090F83100C0070DD04A685AB14CF2D8204A
:10462000C2F201004069904202D0FFF7E7FD08B1F5
:10463000012080BD002080BDB0B584B0DDF828C069
:10464000DDE9084E42B129B10D68002D08BF0CF11B
:10465000040101E00CF10401CDE9004ECDF808C0E1
:1046600000F002F804B0B0BD2DE9F04782B0044676
:10467000807B1F461546012888460FD04BF6AC10AC
:104680004CF20F014CF21B03C0F60000C0F6000113
:10469000C0F600034FF4557206F076FF35B12046A0
:1046A000142101F04FFF30B1FE2054E0608914283E
:1046B0003DD2FE204FE06089DDE90A9A6668132842
:1046C0000CD84BF6AC104CF21B03C0F6000024A132
:1046D000C0F6000340F2893206F056FF28683772B0
:1046E000306145203070208986F809A086F8019055
:1046F00001F08CF84CF2F027C2F201077080388884
:104700004FF00009A6F8069001F080F84BF6D401AE
:10471000C0F60001B0803888B8F1000F18BF4146DC
:10472000096801303880F160A6F80A9003E06068FB
:1047300001AD006901900C99088D38B1228982423F
:1047400004D920462A46FFF773FD04E04B6908466A
:1047500021462A46984740B202B0BDE8F08700BF24
:10476000636865636B207468617420666972737432
:1047700020706275662063616E20686F6C642073C0
:1047800074727563742069705F6864720000000061
:104790002DE9F04F81B046680546307800F00F00F3
:1047A00005280ED1F08801F031F87188804608465E
:1047B00001F02CF8074630783C2101EA800B5F4578
:1047C00007D2284602F0D4F90025284601B0BDE8FA
:1047D000F08F284602F0C0F84CF2F22AC2F2010A29
:1047E000BAF80010814608440B280AD330464946DF
:1047F00000F032FC0028E4D0BAF8000048440A284F
:10480000DFD84EF23C00C2F20100046804B3F06845
:1048100002E000BF2468DCB161698142FAD1A1697C
:1048200032699142F6D1A189B2889142F2D1F088E1
:1048300000F0ECFFC00412D1E08900F0E7FFC004F3
:104840000DD004F1080031461422FBF7FDFC06E010
:104850003046494600F012FB04460028B1D0F088EB
:104860004FEAC80810F02006A7EB0B0709D1B8B231
:1048700010FA88F188B288424ED14FF6EB71884227
:104880004AD8012080EA56122046294600F074F9E1
:10489000411C41D0BAF800104944AAF8001036B9BA
:1048A000A27F07EB0801A18342F00101A177012853
:1048B0004FF000057FF489AF6068A18B476801F174
:1048C00014083E6804F1080138461422FBF7BCFCCA
:1048D0001FFA88F000F09AFFFD807D81656878807E
:1048E00066B100BF77683046142102F0A5FA284669
:1048F000314601F0CFFF3E68002EF3D14EF23C006E
:10490000C2F201000068844231D000BF78B3014692
:104910000068A042FAD12BE064B94BF6AC104CF21F
:104920004303C0F6000028A1C0F600034FF42A722A
:1049300006F02AFE606800287FF443AF4EF23C0088
:10494000C2F20100006884420CD04BF6AC104CF26D
:104950004303C0F600001FA1C0F6000340F2AB22E3
:1049600006F012FE2046002100F058FA29E7002147
:10497000204600F053FA284601F0EEFFBAF8001086
:10498000044681420CD24BF6AC104CF24303C0F605
:10499000000006A1C0F6000340F29B2206F0F4FDE1
:1049A000BAF80000001BAAF800000EE769705F72F9
:1049B000656173735F70627566636F756E74203EB8
:1049C0003D20636C656E000069707220213D204EB1
:1049D000554C4C006E6F74206669727374616C7410
:1049E000686F756768206A75737420656E71756588
:1049F0007565640080B54EF22801C2F2010100BF66
:104A00000968C1B191F8312002F00503052BF7D1F7
:104A10004B68002BF4D0D0F800C0D1F808E083EA4E
:104A20000C0313EA0E0F04D09207E9D4CA68944528
:104A3000E6D1084680BD4EF22401C2F201010968A8
:104A400061B191F8312002F00502052A06D14A68C9
:104A500032B100787F3818BF084680BD002080BD85
:104A60000021084680BD000080B54CF2C821C2F28A
:104A70000101102200F002F880BD00002DE9F04F86
:104A800083B000680DF108094CF6CD4B8E460290BC
:104A900009F103000023CCF6CC4B0DF1050C8A463E
:104AA000009099F800000026C1B20546A1FB0B0852
:104AB0004FEAD800374600EB8006A5EB460545F0E7
:104AC00030057E1CFCB209290CF80450ECD83106E4
:104AD00089F8000014D0104656469342C8BF1846C5
:104AE00098421DD0F9B21CF80140013306F8014B81
:104AF0000029A7F10107F3D1934204DB16E000BFC0
:104B00005646934212DAB2462E200AF8010B00985C
:104B10000133814509F10109C3D10020307001E062
:104B20004FF0000E704603B0BDE8F08F4FF0000E5E
:104B3000F8E7000080B5052001F080FA80BD000094
:104B400010B5044660B94BF6AC104CF24303C0F606
:104B5000000006A1C0F600034FF4317206F014FD08
:104B60000520214601F02CFA10BD00BF7020213D28
:104B7000204E554C4C0000002DE9F04F81B04C68A0
:104B80000E46618805460846914600F03FFE2178B2
:104B90003C2202EA8102904214D3E188841A08463A
:104BA00000F034FEC000D6F804B081B20022CBF889
:104BB000002011FA84F2ABF8040090B29042ABF8F6
:104BC000062004D04FF0FF3001B0BDE8F08F6C68D4
:104BD0000095B4FA84F24FEA5212ECB165684FF0D6
:104BE000000CAB884FF0010A99423FD24FF0000809
:104BF000B8F1000FCBF8004054D098424FF0FF308E
:104C0000E2D8B8F806309942DED3C8F800608B428B
:104C100018BF4FF0000A03E04FF0010A4FF0000800
:104C2000EAB1B8F1000F43D0B8F8060088420CD9B9
:104C30004BF6AC104CF24303C0F6000054A1C0F692
:104C400000034FF4DB7206F09FFCB8F80600BBF8D7
:104C50000410C8F80060884218BF4FF0000AB9F18C
:104C6000000F3AD0BAF1000F42D18CE0002700BF0C
:104C70009AB29142A6D0EB88A8469942A2D31FB11E
:104C8000FB88934218BFE246D8F80040B4FA84F299
:104C9000002C4FEA5212C3D065684746AB88994250
:104CA000E6D2A5E798423FF68DAF00984660B7E799
:104CB0000098406860B14BF6AC104CF24303C0F66C
:104CC00000003BA1C0F6000340F2BF1206F05CFCFE
:104CD00000984660B9F1000FC4D1BAF1000F1EBFB1
:104CE0000099897F11F001014FF000003FF46CAF93
:104CF000009F7868002846D040688088002842D10C
:104D0000DBF80010B1FA81F04FEA5010A9B1496800
:104D1000BBF806208B889A420ED10A68B2FA82F05C
:104D20004FEA501042B1D2F804B0C988BBF8042051
:104D300091425946F1D000E08B4620B37868406834
:104D400058450CD14BF6AC104CF24303C0F60000B2
:104D500025A1C0F6000340F2E11206F015FCDBF8D5
:104D6000000060B14BF6AC104CF24303C0F60000FB
:104D700021A1C0F6000340F2E31206F005FC012079
:104D800001B0BDE8F08F002001B0BDE8F08F00BF9A
:104D9000636865636B20667261676D656E7473200E
:104DA000646F6E2774206F7665726C61700000000E
:104DB0006E6F2070726576696F75732066726167B9
:104DC0006D656E742C2074686973206D7573742022
:104DD000626520746865206669727374206672610A
:104DE000676D656E7421000073616E69747920636C
:104DF0006865636B0000000076616C6964617465CE
:104E00005F646174616772616D3A6E6578745F703A
:104E1000627566213D4E554C4C000000B0B54EF217
:104E20003C02C2F2010213680446834211D00D46CF
:104E300061B94BF6AC104CF24303C0F6000008A178
:104E4000C0F6000340F2451206F09EFB2068286081
:104E500001E0206810600420214601F0B1F8B0BDE7
:104E600073616E69747920636865636B206C696E29
:104E70006B6564206C6973740000000070B50446B3
:104E800004200E4601F0DAF8054638B920463146CE
:104E900000F0E2F8B0421BDA0025FDB100214EF22D
:104EA0003C02C5E90011C2F2010228461368C5E9B7
:104EB0000311C5E90511E96140F8081F0F21E977E1
:104EC0002B60156021461422FBF7BEF9284670BD01
:104ED000042001F0B3F80546002DDFD1002070BD9D
:104EE0002DE9F04F81B088468146814203D0B8F168
:104EF000000F0FD11EE04BF6AC104CF24303C0F68E
:104F000000003CA1C0F60003AB2206F03DFBB8F167
:104F1000000F0FD0D8F8000048450BD04BF6AC106E
:104F20004CF24303C0F6000035A1C0F60003AD22E9
:104F300006F02AFBD9F804406068818809B1002690
:104F400013E0006809F10801C9F804006068142240
:104F5000FBF77AF920460121FFF720F9204601F0FE
:104F6000FBFC0646204601F003FED9F804500DB3C1
:104F70004BF6AC1A4CF24307C0F6000A0FF2940B42
:104F8000C0F6000705E000BF284601F0F1FD254608
:104F900084B168680468284601F0DEFC10FA86F6E1
:104FA000B6F5803FF0D350465946CC223B4606F03A
:104FB000EBFAE9E748464146FFF730FF4CF2F225AD
:104FC000C2F201052888B4B2A0420BD24BF6AC1055
:104FD0004CF24303C0F6000016A1C0F60003D22233
:104FE00006F0D2FA2888811B2046298001B0BDE84E
:104FF000F08F00BF7072657620213D2069707200CD
:10500000707265762D3E6E657874203D3D20697026
:105010007200000070627566735F66726565642079
:105020002B20636C656E203C3D203078666666669A
:105030000000000069705F72656173735F70627574
:1050400066636F756E74203E3D2070627566735F97
:1050500066726565640000002DE9F04F81B04EF284
:105060003C08894683464FF0000AC2F2010800BF9F
:10507000D8F8003043B3DBF80CC00027002100242F
:1050800000200EE007F10107D0B1DE7FC57FAE4200
:105090009CBF184621461A68002A18BF1C461346B2
:1050A00015D05D696545EDD19D69DBF81060B542AD
:1050B000E8D19E89BBF80450AE42E3D1EBE700BFD4
:1050C00018462146E7E700BF00200021002710B165
:1050D000FFF706FF8244022F01DBCA45C8DB5046BA
:1050E00001B0BDE8F08F0000B0B54EF23C00C2F256
:1050F00001000068002808BFB0BD002406E000BF22
:1051000005682146FFF7ECFE28463DB1C17F002926
:10511000F6D001390568C1770446F5E7B0BD000057
:1051200010B5044660B94BF6AC104CF24303C0F620
:10513000000008A1C0F6000340F2CE2206F024FAD7
:105140006069002818BF01F013FD2046FFF7F8FC46
:1051500010BD00BF70637220213D204E554C4C00A5
:105160002DE9F04186B0002643F630000196C4F2E6
:1051700002000168002441F0100101600168C4F2DE
:10518000020401F01001019101990196016801AD3D
:1051900041F0100101600068012700F0100001904B
:1051A00001984FF0020820462946CDE90176039781
:1051B000CDF81080FBF792FE4FF4005001A981E872
:1051C000C10104F500602946FBF788FE06B0BDE882
:1051D000F0810000B0B586B0002043F630010190A8
:1051E000C4F202010A6841F2004442F020020A605F
:1051F0000A68C4F2020402F020020192019A0190AE
:10520000086801AD40F0200008600868294600F0F9
:10521000200001900198402001900120CDE902007A
:10522000022004902046FBF759FE80200190204682
:105230002946FBF753FE4FF4807001902046294623
:10524000FBF74CFE204640210122FBF71DFF2046C4
:1052500080210122FBF718FF20464FF480710122C4
:10526000FBF712FF06B0B0BD10B540F6066101862F
:105270004CF20C21C2F201010A88D1F802104285D9
:10528000C1624CF27C114CF2CC12C2F20101C2F2AA
:1052900001024CF2801440F2DC5309681268C2F239
:1052A0000104038520460423FBF726FA4CF278100C
:1052B000C2F2010001684CF2C810C2F2010002689B
:1052C00020460423FBF7D8F92046FBF7CFFC10BD9E
:1052D0002DE9F04F81B04CF28014C2F20104204657
:1052E000FBF74CFA18B1002001B0BDE8F08FA18F98
:1052F000256C00204FF4C17201F06CF90090A8B346
:105300004CF28010C2F20100046BDDF80090002224
:1053100040F2F55A40F2F45B0DE000BFD9F804000A
:10532000A91840443246FAF78FFFD9F800903A4660
:10533000B9F1000F1AD0B9F80A604FF000089719B8
:105340005745EBD3D9F80400ABEB02074044A9184A
:105350003A46FAF779FFE468F61BA568B8445E455B
:105360004FF00002EED800223746D7E74CF2801704
:10537000C2F20107B86B58B1386BB96B002200BF9D
:105380000368013243F000430360C0688A42F7D3E8
:1053900000233968BB6341F214028A580098120650
:1053A00005D541F2080211448022CA600B6001B0A9
:1053B000BDE8F08F2DE9F04F81B04CF2801000294C
:1053C000C2F2010040D0C46A8946D4F808800022A5
:1053D00040F2F45B00250EE0D9F8041008EB02005F
:1053E00051443246FAF730FFD9F800903544B9F10C
:1053F000000F3A4629D02068002823D4B9F80A6063
:1054000040F2F55097194FF0000A8742E4D300BFED
:10541000D9F80410ABEB020708EB020051443A46FE
:10542000FAF712FFE468206800280BD4D4F808804B
:10543000F61BBA443D445E454FF00002E8D8002216
:105440003746C9E7F82008E000254CF28010C2F288
:1054500001002946FBF72EFC00204CF28011C2F21D
:105460000101096841F214028A58920606D541F2F8
:105470000402114420220A6100220A6040B201B0F5
:10548000BDE8F08F4AF6C001C0F20121C0F8061055
:105490004AF6B861C0F21D010160012181804AF61F
:1054A000C001C0F20131C0F80A106FF07F41C0F8AE
:1054B0000E104AF6C001C0F20111C0F8121000210E
:1054C0008175704770B586B0FEF7FCFB10B1012006
:1054D00006B070BD4CF20C26C2F201063046FFF752
:1054E000D1FF0025FEF772FB30B1042D05F1010557
:1054F000F8D9032006B070BD23A006F0C5F900F06E
:1055000087F943F635614CF2D415002043F6254463
:10551000C0F60001C2F201050590CDE90300C0F616
:105520000004CDE9000105A904AA03AB28460294B2
:1055300000F03AFE68B1284600F0D8FF95F8310037
:10554000400709D44CF2D410C2F2010000F0D4FF9D
:1055500008E0022006B070BD4CF2D410C2F2010087
:1055600000F0E0FF4CF2D415C2F20105284600F02D
:105570005DF945F62D01C0F60001284600F0CEFF8A
:105580000020B07506B070BD65746865726E657494
:105590005F696E6974206F6B210D000010B50446C1
:1055A0004068804701F070FD4CF23811C2F20101F1
:1055B000096823685A18111A48BF1A1845F29D51F4
:1055C000C0F600011046224601F09AFD10BD000011
:1055D0002DE9F04792B04CF20C2AC2F2010A0121E7
:1055E0004CF2D0178AF81610C2F201073978044637
:1055F00005290FD0022915D0012910D10020C4E9B6
:105600000100E060022038702046FDF7B1FC12B0C6
:10561000BDE8F0872046FDF7E3FC0020387012B0AB
:10562000BDE8F0874CF2D415C2F20105D5E9016955
:10563000D5F80C8055A0002105F0A6FF2046FDF707
:10564000D3FC00284CD059A006F01EF90320002EF0
:105650003870E4D002209AF800109AF801209AF8E5
:1056600002309AF803709AF804509AF805408AF8C4
:1056700016004CF29700C0F60000CDE900750294C8
:1056800005F082FF4CF27000370EF1B2C6F307222C
:10569000C6F30743C0F60000CAF80A60009705F099
:1056A00073FF4FEA19675FFA89F1C9F30722C9F35B
:1056B000074343A0CAF80E90009705F065FF4FEA34
:1056C00018675FFA88F1C8F30722C8F3074345A0BB
:1056D000CAF81280009705F057FF12B0BDE8F087B6
:1056E000606A807905289AD34CF20610C0F6000053
:1056F00006F0CAF8042038702046FDF771FCDAF88D
:105700001210FF208AF81600DAF80A00DAF80E30D4
:1057100045F80C1F29462A4641F8080D42F8043D79
:1057200020462B4600F0AEFE201DFFF79DF90DAD83
:1057300001462846FAF7C7FD04F10800FFF794F97F
:1057400008AE01463046FAF7BEFD04F10C00FFF743
:105750008BF903AC01462046FAF7B5FD4CF2D300B5
:10576000C0F60000294605F00FFF4CF2BB00C0F662
:105770000000314605F008FF4CF2EE00C0F60000D4
:10578000214605F001FF12B0BDE8F087776169742A
:10579000696E6720666F7220646863702C20636E88
:1057A00074203D2025640D0A000000004448435049
:1057B00020737563636573732E2E2E2E2E2E0D00AF
:1057C0006E65746D61736B2066726F6D20646863C3
:1057D000702069733A2025642E25642E25642E25B9
:1057E000640D0A00676174657761792066726F6D78
:1057F00020646863702069733A2025642E25642E26
:1058000025642E25640D0A0000BA704740BA70471F
:1058100080B500F083F900F0E5FB00F0F5FD05F040
:10582000D9FB02F00DFA01F0BBFC80BD90F831000D
:105830004CF2D011C0074FF00100C2F2010108BFC5
:10584000052008707047000010B501F0F5FBFBF76C
:1058500021FC4CF27414C2F201042168401AB0F524
:10586000FA7F38BF10BDFBF715FC20604CF2D41056
:10587000C2F20100FFF7ACFE10BD000080B54CF293
:10588000D410C2F20100FEF72DFB80BD80B500F000
:10589000010C01294FF0000E07DBBCF1000F04D012
:1058A00010F8012B01394FEA022E0022022909DBF0
:1058B0000B4600BF30F8021B032B0A44A3F1020180
:1058C0000B46F7DC01290CBF0078002040EA0E00EF
:1058D0001044010C11FA80F0010C11FA80F001BAA9
:1058E000BCF1000F18BF080C80B280BDFBF7E6FBCF
:1058F000FCF712F9FCF700F8FCF74CF8FBF7B2FFE5
:10590000FFF768FCFFF72CFCFCF77CF8002000F0A8
:10591000A3FB012000F0A0FB022000F09DFB19A0DA
:1059200005F0B2FFFFF7CEFD1BA005F0ADFF1F2075
:10593000FEF772FA1DA005F0A7FF4CF20C24C2F28C
:10594000010400BFA07DFF2808D0022806D0FFF781
:105950007BFF4FF47A70FAF77BFEF3E741F20044E5
:105960000025C4F2020400BFFFF76EFF0220FAF721
:105970006FFE0135C82DF7D320468021FBF77CFB55
:105980000025F1E76D656D6F727920696E6974208D
:105990006F6B210D000000006C7769705F636F6DA5
:1059A0006D5F696E6974210D0000000065746865A3
:1059B000726E65745F726561645F7068792073757B
:1059C0006363657373210D00B0B5002808BFB0BDD7
:1059D000044680070DD04BF6AC104BF60323C0F6FF
:1059E00000002EA1C0F6000340F2732205F0CCFDAA
:1059F000B0BD4EF23400C2F201000068A4F1080507
:105A0000854208D34EF23800C2F20100006804F16A
:105A10000C01814210D94BF6AC104BF637214BF6F6
:105A20000323C0F60000C0F60001C0F6000340F2F8
:105A30007F2205F0A9FDB0BD14F8040C90B12846F2
:105A400000F094F8E0B14CF2F420C2F201000168D9
:105A50000022A94204F8042C88BF0560284601F002
:105A60001BFAB0BD4BF6AC104BF60323C0F600009A
:105A700020A1C0F600034FF4237205F085FDB0BDF0
:105A80004BF6AC104BF60323C0F600000CA1C0F699
:105A9000000340F2952205F077FDB0BD6D656D5FA6
:105AA000667265653A2073616E6974792063686512
:105AB000636B20616C69676E6D656E740000000039
:105AC0006D656D5F667265653A20696C6C656761CE
:105AD0006C206D656D6F72793A206E6F6E2D6C69FA
