:020000040800F2
:10000000B00400209D010008990F0008190E000897
:10001000950F0008A90200085D120008000000000A
:10002000000000000000000000000000891000082F
:10003000AD02000800000000C90F0008BD10000854
:10004000B7010008B7010008B7010008B7010008B0
:10005000B7010008B7010008B7010008B7010008A0
:10006000B7010008B7010008B7010008B701000890
:10007000B7010008B7010008B7010008B701000880
:10008000B7010008B7010008B7010008B701000870
:10009000B7010008B7010008B7010008B701000860
:1000A000B7010008B7010008B7010008B701000850
:1000B000B7010008B7010008B7010008B701000840
:1000C000B7010008B7010008B7010008B701000830
:1000D000B7010008B7010008B7010008B701000820
:1000E000B7010008B7010008B7010008B701000810
:1000F000B7010008B7010008B7010008B701000800
:10010000B7010008B7010008B7010008B7010008EF
:10011000B7010008B7010008B7010008B7010008DF
:10012000B7010008B7010008B7010008B7010008CF
:10013000B7010008B7010008B7010008B7010008BF
:10014000B7010008B7010008B7010008B7010008AF
:10015000B7010008B7010008B7010008B70100089F
:10016000B7010008B7010008B7010008B70100088F
:10017000B7010008B7010008B7010008000000003F
:10018000B7010008B7010008DFF80CD000F07AF8DA
:1001900000480047D1130008B004002006488047FB
:1001A00006480047FEE7FEE7FEE7FEE7FEE7FEE75C
:1001B000FEE7FEE7FEE7FEE76D1100088901000893
:1001C0002DE9F05F0546002092469B46884606468C
:1001D000814640241BE0284641464746224600F01F
:1001E00041F853465A46C01A914110D31146184659
:1001F000224600F028F82D1A67EB01084F462246E8
:100200000120002100F01FF817EB00094E41201ECD
:10021000A4F10104DFDC484631462A464346BDE8E6
:10022000F09FD2B201E000F8012B491EFBD27047CB
:100230000022F6E710B513460A4604461946FFF7B2
:10024000F0FF204610BD202A04DB203A00FA02F11C
:10025000002070479140C2F1200320FA03F31943B4
:1002600090407047202A04DB203A21FA02F0002156
:10027000704721FA02F3D040C2F1200291400843B6
:1002800019467047064C074D06E0E06840F0010350
:1002900094E8070098471034AC42F6D3FFF778FF94
:1002A0005817000878170008FEE7000070470000A4
:1002B00072B600BFFEE70000B0B5B3F5804F03464D
:1002C00016D153F822C00020CCF6F0700CEA000ED4
:1002D00091E83100D1F818C040EA0E0040EA04105D
:1002E000C96840EA052040EA0C0040EA014101E00B
:1002F0006FF07041002043F82210B0BD2DE9F04F9F
:1003000083B00B68024650F8230001F1240B20F063
:10031000010042F82300D1E90230D1E900CE01907A
:100320008869D1E9049A0290C86BD1E907760090F8
:100330009BE83008D1F8308052F82C008021CFF6AD
:10034000F07108404EEA0301082B08BF41F040015C
:10035000019B194341EA090141EA0A01394331434A
:100360002143294341EA0B01029B41EA0801194359
:10037000009B19430143002042F82C1003B0BDE854
:10038000F08F0000F0B500EB82025068D1E902E482
:1003900000F0404CD1E90030D1E9045643EA0C03A7
:1003A000002743EA0010CFF6F07740EA0E20896973
:1003B00007EB055540EA04402843FE36084340EA6F
:1003C000066100205160F0BDB0B5044600F04AF966
:1003D000054640F20800C2F200000078611C18BF18
:1003E000044400BF00F03EF9401BA042FAD3B0BD68
:1003F0002DE9F04387B040F21001C2F200010A7803
:100400000020002A0690CDE904000390029049D113
:100410004FF0010881F80080019043F63800C4F2E3
:100420000200016840F6004441F0010101600068EB
:10043000C4F2020400F00100019001984FF23F0065
:1004400002AD02904FF0020903260C2704F500606C
:100450002946CDE903980596069700F027F841F262
:100460003F00CDE9020904F540602946CDE9048644
:10047000069700F01BF84FF68370CDE9020904F5EA
:1004800080602946CDE90486069700F00FF84FF604
:100490003370CDE9020920462946CDE90486069746
:1004A00000F004F807B0BDE8F08300002DE9F04F3C
:1004B00083B000F13E4202F1FF724FEAB22241F6F0
:1004C00000470192C4F2020708224FF0010E0025F6
:1004D0004FF0000A4FF00008B84208BF0722009210
:1004E0000AE000BF08F101080AF1040AB8F1100F90
:1004F00005F1020500F0A4800C680EFA08FB14EA6E
:100500000B09EFD04C6804F0030CACF1010EBEF106
:10051000010F11D80322876802FA05F6CA68B743AB
:10052000AA403A4382604268C4F3001722EA0B02F1
:1005300007FA08F73A434260BCF1030F1CD0C268C7
:1005400003238E6803FA05F7BA4306FA05F73A4320
:10055000BCF1020FC2600FD16FF0030202EA580231
:1005600002440AF01C060F23176A03FA06F40B690B
:10057000A743B3403B431362026803234F68AB4079
:100580009A4307F00303AB401A4317F4403F4FF080
:10059000010E0260A6D0002243F644030292C4F288
:1005A00002031A6843F6004442F480421A601A6853
:1005B000C4F2010402F480420292029A28F003027B
:1005C0004FF6084B2244CFF6FF7B52F80B300AF06F
:1005D0000C070F26BE4023EA060C019B009E072B4A
:1005E00038BF1E4606FA07F747EA0C0342F80B30FD
:1005F000A2684B6842EA090743F60C4CDE0258BF7A
:1006000022EA0907A760C4F2010CDCF800209E0270
:1006100042EA090758BF22EA0907CCF8007062686D
:100620009E0342EA090758BF22EA09076760226869
:10063000DB0342EA090358BF22EA0903236051E7BA
:1006400003B0BDE8F08F0000426902EA0103914364
:1006500041EA034181617047002A08BF09048161B2
:100660007047000040F2AC00C2F200000068704722
:1006700040F2080040F2AC01C2F20000C2F20001F8
:1006800000780A68104408607047000080B543F69F
:100690000040C4F20200016841F400710160016889
:1006A00041F480610160016841F4807101600320C0
:1006B00000F05CF80F2000F005F800F02BF80020A7
:1006C00080BD0000B0B540F20802C2F2000240F264
:1006D00004011278C2F200014FF47A730968B3FB87
:1006E000F2F20446B1FBF2F1084600F027FB0F2CB2
:1006F0004FF001050CD858B94FF0FF3021460022C9
:10070000002500F023F840F20C00C2F20000046063
:100710002846B0BD82B0002043F640010190C4F2EB
:1007200002014A6842F480424A604A6802F4804208
:100730000192019A0090086840F0805008600868B3
:1007400000F080500090009802B0704770B51446D9
:100750000D46064600F084FD2946224600F01EFCA8
:100760000146304600F084FD70BD000080B500F009
:1007700091FD80BD2DE9F041002800F08B8043F60B
:100780000808C4F202080446D8F8F8030D4600F041
:100790000700884207D288F8F853D8F8F80300F029
:1007A0000700A84276D12068810717D5410705D5F3
:1007B000D8F8001041F4E051C8F80010010705D541
:1007C000D8F8001041F46041C8F80010D8F80010C3
:1007D000A26821F0F0011143C8F80010C0073FD112
:1007E000D8F8F80300F00700A84207D988F8F853B2
:1007F000D8F8F80300F00700A8424BD12068410761
:1008000007D5D8F80010E26821F4E0511143C8F888
:100810000010000708D5D8F80000216920F46040D6
:1008200040EAC100C8F8000000F07EF8D8F80010D7
:1008300041F24072C1F30311C0F60002515C40F274
:10084000040220FA01F140F20C00C2F2000000683C
:10085000C2F200021160FFF735FF0020BDE8F08111
:100860006068811E022907D258F8081C89015CBF04
:100870000120BDE8F08110E0012807D158F8081CDC
:1008800089035CBF0120BDE8F08106E058F8081C30
:10089000890702D40120BDE8F081D8F8001021F0CA
:1008A00003010843C8F80000FFF7DCFE064641F2EA
:1008B000883700BFD8F80000616800F00C00B0EB8A
:1008C000810F8DD0FFF7CEFE801BB842F2D90320F6
:1008D000BDE8F08140F20400C2F2000000687047F9
:1008E00080B5FFF7F7FF43F60801C4F2020109687B
:1008F00041F25072C1F38221C0F60002515CC8403F
:1009000080BD000080B5FFF7E5FF43F60801C4F2A3
:100910000201096841F25072C1F34231C0F600028F
:10092000515CC84080BD000010B543F60404C4F219
:100930000204606800F00C0008280AD0042819BFDF
:1009400042F20040C0F2F40047F64000C0F27D10D1
:1009500010BD206821682368490247F64001C0F2B3
:100960007D1100F03F02C3F388105CBF42F20041EA
:10097000C0F2F401A1FB00010023FFF721FC216874
:100980000222C1F3014102EB4101B0FBF1F010BDC5
:100990002DE9F04182B0002800F0A28004460078E2
:1009A00043F60006C007C4F2020643D0B06800F068
:1009B0000C00042805D1306880033BD56068C8BBB3
:1009C0008EE0B06800F00C00082802D17068400288
:1009D000F1D46568B5F5A02F0AD0B5F5803F0BD0EE
:1009E000306820F480303060306820F4802006E0E9
:1009F000306840F480203060306840F480303060EF
:100A0000FFF730FE002D054611D000BF306880038F
:100A100010D4FFF727FE401B6428F7D922E100BF5E
:100A2000FFF720FE401B64284FF0030055D83068C4
:100A30008003F5D4207880071AD5B06810F00C0F29
:100A400009D0B06800F00C00082840F08A80706877
:100A5000400200F186803068800702D5E0680128F6
:100A60003ED13068216920F0F80040EAC1003060D2
:100A70002078000738D4207840074CD4A5695DB3AE
:100A8000B06800F00C00082840F09E80012D27D0AF
:100A90007068E16900F480028A4221D1216A00F085
:100AA0003F028A421CD147F6C071626A0140B1EB35
:100AB000821F15D1A26A0023CFF6FF7303EBC23267
:100AC00000F440316FF30F02914209D1E16A00F066
:100AD0007060B0EB016F03D1002002B0BDE8F0817F
:100AE000012002B0BDE8F0816069002840F20000FA
:100AF000C4F2472057D00121C0F8801EFFF7B2FD95
:100B0000054600BF706F8007B5D4FFF7ABFD401BF3
:100B10000228F7D9A6E0306C10F080580AD10020E6
:100B20000190306C40F080503064306C00F08050A8
:100B30000190019847F20007C4F200073868C00529
:100B400024D4386840F480703860FFF78BFD054688
:100B50003868C0051AD4FFF785FD401B0228F7D975
:100B600080E0E068002851D00020C4F24720012135
:100B70000160FFF777FD0546306880073FF571AFEC
:100B8000FFF770FD401B0228F6D96BE0A568052D24
:100B900050D0012D52D0306F20F001003067306FFF
:100BA00020F004004DE00021C0F8801EFFF75AFD40
:100BB000054600BF706F80077FF55DAFFFF752FD00
:100BC000401B0228F6D94DE00027C4F24727002039
:100BD0003866FFF747FD022D05460BD130688001CE
:100BE00058D5FFF73FFD401B02284FF00300F5D911
:100BF00073E700BF306880017FF56EAFFFF732FD0D
:100C0000401B02284FF00300F4D966E70020C4F22D
:100C1000472000210160FFF725FD05463068800769
:100C20007FF526AFFFF71EFD401B02284FF00300A3
:100C3000F4D952E7306F40F004003067306F40F075
:100C400001003067FFF70EFD002D054641F28837A1
:100C500014D000BF306F800713D4FFF703FD401B93
:100C6000B842F7D9032002B0BDE8F081FFF7FAFCE3
:100C7000401BB8424FF003003FF62FAF306F8007A4
:100C8000F4D4B8F1000F7FF4F9AE306C20F080504E
:100C90003064F3E604F11C052FCD08430021CFF6A4
:100CA000FF7140EA821001EBC3316FF30F0140EA9C
:100CB00005600843706001203866FFF7D3FC0446E6
:100CC000306880013FF508AFFFF7CCFC001B02281D
:100CD0004FF00300F4D900E7002804BF012070475B
:100CE00070B5044690F8490015460E4628B9002014
:100CF00084F84800204600F01DF8206804F108013F
:100D0000FFF7FCFA2068A2683146FFF73BFBD4E905
:100D10000102236B2946FFF7CFFA2068A16850F83B
:100D2000212042F0010240F82120012084F84900EE
:100D3000002070BD80B5FFF75BFB80BD80B500F083
:100D4000A5F980BD002804BF0120704710B50446F6
:100D500090F8410028B9002084F84000204600F0B7
:100D600021F8242084F841002068C16821F4005152
:100D7000C160204600F004FA2068016921F4904126
:100D80000161416921F02A014161C16841F40051CA
:100D9000C16000202021606484F8411084F8421072
:100DA000606310BD80B586B041F200010068C4F2F6
:100DB0000101002288420592CDE9032202920192AC
:100DC00001D006B080BD43F630000092C4F20200AC
:100DD000436943F010034361436903F01003009338
:100DE000009B0092036843F001030360006800F079
:100DF0000100009000984FF4C06001900220CDE9FE
:100E00000202032004900720059001F5704001A91B
:100E1000FFF74CFB06B080BD41F20044C4F202046F
:100E200020464021FFF710FCFAE7000080B588B0AB
:100E300040F21400C2F200004FF0204240F20413CE
:100E40000021CAF200034FF0060C80E80C104FF4AA
:100E500080524FF0100E4FF48013C0E90A2108228F
:100E60000791CDE90511CDE90311CDE90111C0E9E3
:100E70000311C0E905E1C161C0E90811C0E90C1125
:100E8000C0E90E134164CDE90111CDE90321CDE99B
:100E90000511079101A90A46FFF71EFF002818BF98
:100EA000FFF706FA02A000F039FC08B080BD00BFD1
:100EB0007372616D20696E6974206F6B210D000083
:100EC00081B0002143F630000091C4F202000268B4
:100ED00042F004020260026802F004020092009AEA
:100EE0000091026842F020020260026802F02002D3
:100EF0000092009A0091026842F08002026002684B
:100F000002F080020092009A0091026842F04002D2
:100F10000260026802F040020092009A00910268AA
:100F200042F010020260026802F010020092009A81
:100F30000091026842F008020260026802F00802B2
:100F40000092009A0091016841F00101016000687F
:100F500000F001000090009801B0704780B540F2A9
:100F6000640041F20001C2F20000C4F2010100235A
:100F70004FF00C0C4FF4E13280E80E00C0E903336F
:100F8000C0E905C3C361FFF7DDFE002818BFFFF706
:100F90008FF980BDFEE70000FEE7000000F00700CB
:100FA00080F00703042B28BF04234FF0FF3C0338D5
:100FB0000CFA03F338BF0020994381400CFA00F08B
:100FC00022EA0000084370477047000010B510A0E7
:100FD00000F0A4FB4FF0D840AA21017012A0AA2172
:100FE00000F01CFA0A24C6F600444BF6BB30208001
:100FF00014A04BF6BB3100F011FA4FF0CC30C4F81E
:101000000A0018A04FF0CC3100F008FA002010BD03
:10101000706F696E746572206D6574686F6420749A
:10102000657374210D0000007772697465203D209E
:10103000307841412C2072656164203D2030782554
:10104000580D0A007772697465203D20307842425D
:1010500042422C2072656164203D20307825580D75
:101060000A0000007772697465203D2030784343A0
:101070004343434343432C2072656164203D203049
:101080007825580D0A00000070470000B0B50138FF
:101090000024B4EB106F1CBF0120B0BD4EF2100550
:1010A000CEF2000568604FF0FF300F2100F0E0F84D
:1010B0000720AC6028602046B0BD000080B5FFF777
:1010C000D7FA80BD70B592B006AC20463021FFF74C
:1010D000AFF8002543F640000595CDE90355CDE96D
:1010E00001550095C4F202000168022641F08051CA
:1010F0000160006800F080500090009847F2000006
:101100000095C4F20000016841F48041016000686C
:1011100000F4804000900098012006904FF4803049
:1011200007904FF480000D9019200E904FF4A87096
:10113000CDE90F060420119020460C96FFF728FCFD
:1011400088B90F20CDE901064FF4A05004904FF468
:101150008050059001A805210395FFF70BFB00289F
:1011600004BF12B070BDFFF7A3F800004EF6885020
:10117000CEF20000016841F4700101607047000088
:1011800010B504460068D4E902C22369016921F45C
:10119000405111430161626943EA0C01E369114363
:1011A000C268194349F20C639A431143C160416913
:1011B000A26921F4407141F20043114340F480627E
:1011C000C4F201039A42416102D1FFF79BFB01E0A7
:1011D000FFF786FBE16963681922B1F5004FA0FBB8
:1011E00002011CD15A00DB0FFEF7EAFF48F21F5143
:1011F000C5F2EB11A0FB01235A096FF0630302FB58
:101200000300322303EBC000A0FB01014FF4F87090
:1012100000EA111000EB0210C1F342111AE09A002B
:101220009B0FFEF7CDFF48F21F51C5F2EB11A0FB5B
:1012300001235A096FF0630302FB0300322303EB1F
:101240000010A0FB0101F02000EA511000EB021099
:10125000C1F3431122680843906010BDFEE700000F
:101260004EF60C50CEF200000068C0F3022070472A
:101270004EF6145300F00F02CEF2000309011A4497
:1012800000F16043B0F1FF3FC8BF03F56442117045
:10129000704700004EF60C51CEF200010A684FF67E
:1012A000FF031A4060F30A2242F0806040F0FD70B4
:1012B0000860704741F20001C4F201010A68520659
:1012C000FCD5C2B24A6070472DE9F04186B00026D5
:1012D00043F630000196C4F202000168002441F098
:1012E000100101600168C4F2020401F010010191D3
:1012F00001990196016801AD41F01001016000689B
:10130000012700F01000019001984FF002082046DC
:101310002946CDE901760397CDF81080FFF7C6F88E
:101320004FF4005001A981E8C10104F5006029468D
:10133000FFF7BCF806B0BDE8F0810000B0B586B09C
:10134000002043F630010190C4F202010A6841F224
:10135000004442F020020A600A68C4F2020402F06B
:1013600020020192019A0190086801AD40F020002E
:1013700008600868294600F020000190019840208C
:1013800001900120CDE90200022004902046FFF7E1
:101390008DF88020019020462946FFF787F84FF40A
:1013A0008070019020462946FFF780F820464021B2
:1013B0000122FFF751F9204680210122FFF74CF965
:1013C00020464FF480710122FFF746F906B0B0BD08
:1013D000FFF75CF9FFF776FEFFF772FDFFF7BEFD42
:1013E000FFF724FDFFF7AAFFFFF76EFFFFF7EEFD03
:1013F00041F2004507A4C4F2020500BF204600F0F8
:101400008DF94FF47A70FEF7DFFF28468021FFF751
:101410001BF9F3E768656C6C6F210D000FB4054B89
:1014200010B503A9044A029800F018F810BC5DF842
:1014300014FB0000B51200080000002002E008C8FC
:10144000121F08C1002AFAD170477047002001E03E
:1014500001C1121F002AFBD1704700002DE9FF4F88
:101460008DB09B460F460446002606E025280BD08B
:101470005A460F999047641C761C20780028F5D1B5
:1014800011B03046BDE8F08F0025A84601229849EA
:1014900000E0054314F8013F203B02FA03F0084244
:1014A000F7D120782E2817D114F8010F45F0040544
:1014B0002A280ED06FF02F022078A0F130010929E0
:1014C0000AD808EB880102EB410100EB0108641C1B
:1014D000F2E757F8048B641C20786C280DD004DCEC
:1014E0004C2812D06A2811D104E074280DD07A2833
:1014F0000CD10AE045F4001507E0617845F4801549
:10150000814202D1641C05F58015641C2278692A89
:1015100045D008DC002AB3D0582A69D0632A10D0FD
:10152000642A08D13BE0702A67D0732A13D0752A49
:101530005CD0782A5CD010465A460F999047761CAA
:10154000D3E017F8040B8DF8000000208DF801009F
:10155000E946012003E057F8049B4FF0FF3069078C
:101560004FF0000501D40AE06D1C45450DDA8542B7
:10157000FADB19F805100029F6D106E06D1C85424A
:10158000FCDB19F805100029F8D12E4404E019F805
:10159000010B5A460F9990476D1EF8D2A5E00A201C
:1015A0000021CDE90801C5F3025002280DD001CF7A
:1015B000C117031E71F100030DDA4FF0000CD0EBE0
:1015C0000C006CEB01012D2308E0FF1D27F007073D
:1015D000F7E80201EDE72B0504D52B238DF8283021
:1015E00001233BE0EB0739D02023F7E70A2000E096
:1015F00010200021CDE9080107E01020002145F06E
:101600000405CDE908014FF00808C5F3025002288F
:101610000FD001CF00214FF0000A2B071FD5702AF1
:101620000DD0DDE908C38CF0100C5CEA030C0CD083
:1016300015E0FF1D27F00707F7E80201EBE740225E
:101640008DF828204FF0010A0BE050EA010306D084
:1016500030238DF828308DF8292002239A46582A05
:1016600004D024A20DF120090B9209E026A2F9E78B
:10167000DDE90823FEF7A4FD0B9B9B5C09F8013D07
:1016800050EA0102F4D1ADEB090020300890680760
:1016900001D44FF001080899884502DDA8EB01004C
:1016A00000E000208046002506E00AA85A46405D7A
:1016B0000F9990476D1C761C5545F6DB04E03020F1
:1016C0005A460F999047761CB8F10001A8F101081D
:1016D000F5DC05E019F8010B5A460F999047761C86
:1016E0000899481E08900029F4DC641CC5E6000037
:1016F00009280100303132333435363738396162E8
:1017000063646566000000003031323334353637AB
:1017100038394142434445460000000010B50446B4
:1017200001E0FFF7C7FD14F8010B04490028F8D1C8
:10173000BDE810400A20FFF7BDBD000000000020FA
:101740000000000000000000010203040607080971
:1017500000000000010203047817000800000020C8
:10176000100000003C14000888170008100000203A
:10177000A00400004C140008000000000024F40045
:08178000010000001000000050
:040000050800018965
:00000001FF
